{
  "contractName": "FlexiblePaymentSplitterFactory",
  "abi": [
    {
      "inputs": [],
      "stateMutability": "nonpayable",
      "type": "constructor"
    },
    {
      "anonymous": false,
      "inputs": [
        {
          "indexed": true,
          "internalType": "address",
          "name": "owner",
          "type": "address"
        },
        {
          "indexed": false,
          "internalType": "address",
          "name": "contractAddr",
          "type": "address"
        },
        {
          "indexed": false,
          "internalType": "string",
          "name": "description",
          "type": "string"
        }
      ],
      "name": "ContractCreated",
      "type": "event"
    },
    {
      "inputs": [
        {
          "internalType": "address",
          "name": "",
          "type": "address"
        },
        {
          "internalType": "uint256",
          "name": "",
          "type": "uint256"
        }
      ],
      "name": "creatorToChildren",
      "outputs": [
        {
          "internalType": "address",
          "name": "",
          "type": "address"
        }
      ],
      "stateMutability": "view",
      "type": "function",
      "constant": true
    },
    {
      "inputs": [
        {
          "internalType": "address",
          "name": "",
          "type": "address"
        }
      ],
      "name": "creatorToChildrenNum",
      "outputs": [
        {
          "internalType": "uint256",
          "name": "",
          "type": "uint256"
        }
      ],
      "stateMutability": "view",
      "type": "function",
      "constant": true
    },
    {
      "inputs": [
        {
          "internalType": "uint256",
          "name": "",
          "type": "uint256"
        }
      ],
      "name": "deployedChildren",
      "outputs": [
        {
          "internalType": "contract FlexiblePaymentSplitter",
          "name": "",
          "type": "address"
        }
      ],
      "stateMutability": "view",
      "type": "function",
      "constant": true
    },
    {
      "inputs": [],
      "name": "numDeployedChildren",
      "outputs": [
        {
          "internalType": "uint256",
          "name": "",
          "type": "uint256"
        }
      ],
      "stateMutability": "view",
      "type": "function",
      "constant": true
    },
    {
      "inputs": [
        {
          "internalType": "address[]",
          "name": "payees",
          "type": "address[]"
        },
        {
          "internalType": "uint256[]",
          "name": "shares_",
          "type": "uint256[]"
        },
        {
          "internalType": "string",
          "name": "description",
          "type": "string"
        }
      ],
      "name": "deployChild",
      "outputs": [],
      "stateMutability": "nonpayable",
      "type": "function"
    }
  ],
  "bytecode": "0x608060405234801561001057600080fd5b506147b9806100206000396000f3fe60806040523480156200001157600080fd5b50600436106200005e5760003560e01c806309865362146200006357806343105e13146200009957806354c960c514620000bb578063ec6c4e0614620000f1578063fb33c0ce1462000127575b600080fd5b6200008160048036038101906200007b919062000461565b62000147565b6040516200009091906200051e565b60405180910390f35b620000a362000187565b604051620000b291906200054c565b60405180910390f35b620000d96004803603810190620000d39190620005ae565b6200018d565b604051620000e8919062000606565b60405180910390f35b6200010f600480360381019062000109919062000623565b620001dc565b6040516200011e91906200054c565b60405180910390f35b6200014560048036038101906200013f919062000968565b620001f4565b005b600181815481106200015857600080fd5b906000526020600020016000915054906101000a900473ffffffffffffffffffffffffffffffffffffffff1681565b60005481565b60026020528160005260406000208181548110620001aa57600080fd5b906000526020600020016000915091509054906101000a900473ffffffffffffffffffffffffffffffffffffffff1681565b60036020528060005260406000206000915090505481565b600083838333604051620002089062000404565b62000217949392919062000c50565b604051809103906000f08015801562000234573d6000803e3d6000fd5b5090506001819080600181540180825580915050600190039060005260206000200160009091909190916101000a81548173ffffffffffffffffffffffffffffffffffffffff021916908373ffffffffffffffffffffffffffffffffffffffff1602179055506001600080828254620002ae919062000ce1565b92505081905550600260003373ffffffffffffffffffffffffffffffffffffffff1673ffffffffffffffffffffffffffffffffffffffff168152602001908152602001600020819080600181540180825580915050600190039060005260206000200160009091909190916101000a81548173ffffffffffffffffffffffffffffffffffffffff021916908373ffffffffffffffffffffffffffffffffffffffff160217905550600360003373ffffffffffffffffffffffffffffffffffffffff1673ffffffffffffffffffffffffffffffffffffffff1681526020019081526020016000206000815480929190620003a79062000d3e565b91905055503373ffffffffffffffffffffffffffffffffffffffff167fd127e714d98e23e914e6659df0aa28a12758da7c47219dbcc981d617de644b138284604051620003f692919062000d8c565b60405180910390a250505050565b6139c38062000dc183390190565b6000604051905090565b600080fd5b600080fd5b6000819050919050565b6200043b8162000426565b81146200044757600080fd5b50565b6000813590506200045b8162000430565b92915050565b6000602082840312156200047a57620004796200041c565b5b60006200048a848285016200044a565b91505092915050565b600073ffffffffffffffffffffffffffffffffffffffff82169050919050565b6000819050919050565b6000620004de620004d8620004d28462000493565b620004b3565b62000493565b9050919050565b6000620004f282620004bd565b9050919050565b60006200050682620004e5565b9050919050565b6200051881620004f9565b82525050565b60006020820190506200053560008301846200050d565b92915050565b620005468162000426565b82525050565b60006020820190506200056360008301846200053b565b92915050565b6000620005768262000493565b9050919050565b620005888162000569565b81146200059457600080fd5b50565b600081359050620005a8816200057d565b92915050565b60008060408385031215620005c857620005c76200041c565b5b6000620005d88582860162000597565b9250506020620005eb858286016200044a565b9150509250929050565b620006008162000569565b82525050565b60006020820190506200061d6000830184620005f5565b92915050565b6000602082840312156200063c576200063b6200041c565b5b60006200064c8482850162000597565b91505092915050565b600080fd5b6000601f19601f8301169050919050565b7f4e487b7100000000000000000000000000000000000000000000000000000000600052604160045260246000fd5b620006a5826200065a565b810181811067ffffffffffffffff82111715620006c757620006c66200066b565b5b80604052505050565b6000620006dc62000412565b9050620006ea82826200069a565b919050565b600067ffffffffffffffff8211156200070d576200070c6200066b565b5b602082029050602081019050919050565b600080fd5b60006200073a6200073484620006ef565b620006d0565b9050808382526020820190506020840283018581111562000760576200075f6200071e565b5b835b818110156200078d578062000778888262000597565b84526020840193505060208101905062000762565b5050509392505050565b600082601f830112620007af57620007ae62000655565b5b8135620007c184826020860162000723565b91505092915050565b600067ffffffffffffffff821115620007e857620007e76200066b565b5b602082029050602081019050919050565b6000620008106200080a84620007ca565b620006d0565b905080838252602082019050602084028301858111156200083657620008356200071e565b5b835b818110156200086357806200084e88826200044a565b84526020840193505060208101905062000838565b5050509392505050565b600082601f83011262000885576200088462000655565b5b813562000897848260208601620007f9565b91505092915050565b600080fd5b600067ffffffffffffffff821115620008c357620008c26200066b565b5b620008ce826200065a565b9050602081019050919050565b82818337600083830152505050565b600062000901620008fb84620008a5565b620006d0565b90508281526020810184848401111562000920576200091f620008a0565b5b6200092d848285620008db565b509392505050565b600082601f8301126200094d576200094c62000655565b5b81356200095f848260208601620008ea565b91505092915050565b6000806000606084860312156200098457620009836200041c565b5b600084013567ffffffffffffffff811115620009a557620009a462000421565b5b620009b38682870162000797565b935050602084013567ffffffffffffffff811115620009d757620009d662000421565b5b620009e5868287016200086d565b925050604084013567ffffffffffffffff81111562000a095762000a0862000421565b5b62000a178682870162000935565b9150509250925092565b600081519050919050565b600082825260208201905092915050565b6000819050602082019050919050565b62000a588162000569565b82525050565b600062000a6c838362000a4d565b60208301905092915050565b6000602082019050919050565b600062000a928262000a21565b62000a9e818562000a2c565b935062000aab8362000a3d565b8060005b8381101562000ae257815162000ac6888262000a5e565b975062000ad38362000a78565b92505060018101905062000aaf565b5085935050505092915050565b600081519050919050565b600082825260208201905092915050565b6000819050602082019050919050565b62000b268162000426565b82525050565b600062000b3a838362000b1b565b60208301905092915050565b6000602082019050919050565b600062000b608262000aef565b62000b6c818562000afa565b935062000b798362000b0b565b8060005b8381101562000bb057815162000b94888262000b2c565b975062000ba18362000b46565b92505060018101905062000b7d565b5085935050505092915050565b600081519050919050565b600082825260208201905092915050565b60005b8381101562000bf957808201518184015260208101905062000bdc565b8381111562000c09576000848401525b50505050565b600062000c1c8262000bbd565b62000c28818562000bc8565b935062000c3a81856020860162000bd9565b62000c45816200065a565b840191505092915050565b6000608082019050818103600083015262000c6c818762000a85565b9050818103602083015262000c82818662000b53565b9050818103604083015262000c98818562000c0f565b905062000ca96060830184620005f5565b95945050505050565b7f4e487b7100000000000000000000000000000000000000000000000000000000600052601160045260246000fd5b600062000cee8262000426565b915062000cfb8362000426565b9250827fffffffffffffffffffffffffffffffffffffffffffffffffffffffffffffffff0382111562000d335762000d3262000cb2565b5b828201905092915050565b600062000d4b8262000426565b91507fffffffffffffffffffffffffffffffffffffffffffffffffffffffffffffffff82141562000d815762000d8062000cb2565b5b600182019050919050565b600060408201905062000da36000830185620005f5565b818103602083015262000db7818462000c0f565b9050939250505056fe6080604052604051620039c3380380620039c3833981810160405281019062000029919062000956565b620000496200003d6200019660201b60201c565b6200019e60201b60201c565b825184511462000090576040517f08c379a0000000000000000000000000000000000000000000000000000000008152600401620000879062000aac565b60405180910390fd5b6000845111620000d7576040517f08c379a0000000000000000000000000000000000000000000000000000000008152600401620000ce9062000b44565b60405180910390fd5b8160039080519060200190620000ef929190620004b8565b506000600860006101000a81548160ff02191690831515021790555060005b84518110156200017a576200016485828151811062000132576200013162000b66565b5b602002602001015185838151811062000150576200014f62000b66565b5b60200260200101516200026260201b60201c565b8080620001719062000bc4565b9150506200010e565b506200018c816200019e60201b60201c565b5050505062000eeb565b600033905090565b60008060009054906101000a900473ffffffffffffffffffffffffffffffffffffffff169050816000806101000a81548173ffffffffffffffffffffffffffffffffffffffff021916908373ffffffffffffffffffffffffffffffffffffffff1602179055508173ffffffffffffffffffffffffffffffffffffffff168173ffffffffffffffffffffffffffffffffffffffff167f8be0079c531659141344cd1fd0a4f28419497f9722a3daafe3b4186f6b6457e060405160405180910390a35050565b600073ffffffffffffffffffffffffffffffffffffffff168273ffffffffffffffffffffffffffffffffffffffff161415620002d5576040517f08c379a0000000000000000000000000000000000000000000000000000000008152600401620002cc9062000c88565b60405180910390fd5b600081116200031b576040517f08c379a0000000000000000000000000000000000000000000000000000000008152600401620003129062000d20565b60405180910390fd5b6000600460008473ffffffffffffffffffffffffffffffffffffffff1673ffffffffffffffffffffffffffffffffffffffff1681526020019081526020016000205414620003a0576040517f08c379a0000000000000000000000000000000000000000000000000000000008152600401620003979062000db8565b60405180910390fd5b600160076000828254620003b5919062000dda565b925050819055506006829080600181540180825580915050600190039060005260206000200160009091909190916101000a81548173ffffffffffffffffffffffffffffffffffffffff021916908373ffffffffffffffffffffffffffffffffffffffff16021790555080600460008473ffffffffffffffffffffffffffffffffffffffff1673ffffffffffffffffffffffffffffffffffffffff168152602001908152602001600020819055508060015462000473919062000dda565b6001819055507f40c340f65e17194d14ddddb073d3c9f888e3cb52b5aae0c6c7706b4fbc905fac8282604051620004ac92919062000e59565b60405180910390a15050565b828054620004c69062000eb5565b90600052602060002090601f016020900481019282620004ea576000855562000536565b82601f106200050557805160ff191683800117855562000536565b8280016001018555821562000536579182015b828111156200053557825182559160200191906001019062000518565b5b50905062000545919062000549565b5090565b5b80821115620005645760008160009055506001016200054a565b5090565b6000604051905090565b600080fd5b600080fd5b600080fd5b6000601f19601f8301169050919050565b7f4e487b7100000000000000000000000000000000000000000000000000000000600052604160045260246000fd5b620005cc8262000581565b810181811067ffffffffffffffff82111715620005ee57620005ed62000592565b5b80604052505050565b60006200060362000568565b9050620006118282620005c1565b919050565b600067ffffffffffffffff82111562000634576200063362000592565b5b602082029050602081019050919050565b600080fd5b600073ffffffffffffffffffffffffffffffffffffffff82169050919050565b600062000677826200064a565b9050919050565b62000689816200066a565b81146200069557600080fd5b50565b600081519050620006a9816200067e565b92915050565b6000620006c6620006c08462000616565b620005f7565b90508083825260208201905060208402830185811115620006ec57620006eb62000645565b5b835b8181101562000719578062000704888262000698565b845260208401935050602081019050620006ee565b5050509392505050565b600082601f8301126200073b576200073a6200057c565b5b81516200074d848260208601620006af565b91505092915050565b600067ffffffffffffffff82111562000774576200077362000592565b5b602082029050602081019050919050565b6000819050919050565b6200079a8162000785565b8114620007a657600080fd5b50565b600081519050620007ba816200078f565b92915050565b6000620007d7620007d18462000756565b620005f7565b90508083825260208201905060208402830185811115620007fd57620007fc62000645565b5b835b818110156200082a5780620008158882620007a9565b845260208401935050602081019050620007ff565b5050509392505050565b600082601f8301126200084c576200084b6200057c565b5b81516200085e848260208601620007c0565b91505092915050565b600080fd5b600067ffffffffffffffff8211156200088a576200088962000592565b5b620008958262000581565b9050602081019050919050565b60005b83811015620008c2578082015181840152602081019050620008a5565b83811115620008d2576000848401525b50505050565b6000620008ef620008e9846200086c565b620005f7565b9050828152602081018484840111156200090e576200090d62000867565b5b6200091b848285620008a2565b509392505050565b600082601f8301126200093b576200093a6200057c565b5b81516200094d848260208601620008d8565b91505092915050565b6000806000806080858703121562000973576200097262000572565b5b600085015167ffffffffffffffff81111562000994576200099362000577565b5b620009a28782880162000723565b945050602085015167ffffffffffffffff811115620009c657620009c562000577565b5b620009d48782880162000834565b935050604085015167ffffffffffffffff811115620009f857620009f762000577565b5b62000a068782880162000923565b925050606062000a198782880162000698565b91505092959194509250565b600082825260208201905092915050565b7f466c657869626c655061796d656e7453706c69747465723a207061796565732060008201527f616e6420736861726573206c656e677468206d69736d61746368000000000000602082015250565b600062000a94603a8362000a25565b915062000aa18262000a36565b604082019050919050565b6000602082019050818103600083015262000ac78162000a85565b9050919050565b7f466c657869626c655061796d656e7453706c69747465723a206e6f207061796560008201527f6573000000000000000000000000000000000000000000000000000000000000602082015250565b600062000b2c60228362000a25565b915062000b398262000ace565b604082019050919050565b6000602082019050818103600083015262000b5f8162000b1d565b9050919050565b7f4e487b7100000000000000000000000000000000000000000000000000000000600052603260045260246000fd5b7f4e487b7100000000000000000000000000000000000000000000000000000000600052601160045260246000fd5b600062000bd18262000785565b91507fffffffffffffffffffffffffffffffffffffffffffffffffffffffffffffffff82141562000c075762000c0662000b95565b5b600182019050919050565b7f466c657869626c655061796d656e7453706c69747465723a206163636f756e7460008201527f20697320746865207a65726f2061646472657373000000000000000000000000602082015250565b600062000c7060348362000a25565b915062000c7d8262000c12565b604082019050919050565b6000602082019050818103600083015262000ca38162000c61565b9050919050565b7f466c657869626c655061796d656e7453706c69747465723a207368617265732060008201527f6172652030000000000000000000000000000000000000000000000000000000602082015250565b600062000d0860258362000a25565b915062000d158262000caa565b604082019050919050565b6000602082019050818103600083015262000d3b8162000cf9565b9050919050565b7f466c657869626c655061796d656e7453706c69747465723a206163636f756e7460008201527f20616c7265616479206861732073686172657300000000000000000000000000602082015250565b600062000da060338362000a25565b915062000dad8262000d42565b604082019050919050565b6000602082019050818103600083015262000dd38162000d91565b9050919050565b600062000de78262000785565b915062000df48362000785565b9250827fffffffffffffffffffffffffffffffffffffffffffffffffffffffffffffffff0382111562000e2c5762000e2b62000b95565b5b828201905092915050565b62000e42816200066a565b82525050565b62000e538162000785565b82525050565b600060408201905062000e70600083018562000e37565b62000e7f602083018462000e48565b9392505050565b7f4e487b7100000000000000000000000000000000000000000000000000000000600052602260045260246000fd5b6000600282049050600182168062000ece57607f821691505b6020821081141562000ee55762000ee462000e86565b5b50919050565b612ac88062000efb6000396000f3fe60806040526004361061012e5760003560e01c8063715018a6116100ab578063be8766ba1161006f578063be8766ba14610445578063ce7c2ac21461045c578063d2aa680714610499578063d79779b2146104c2578063e33b7de3146104ff578063f2fde38b1461052a576101cb565b8063715018a61461035e5780637284e416146103755780638b83209b146103a05780638da5cb5b146103dd5780639852595c14610408576101cb565b80635634c592116100f25780635634c592146102b3578063580fc80a146102dc5780635be7fde8146103055780636916ef1d1461031c5780636e12d89014610347576101cb565b806318f9b023146101d057806319165587146101f95780633a98ef3914610222578063406072a91461024d57806348b750441461028a576101cb565b366101cb5760001515600860009054906101000a900460ff16151514610189576040517f08c379a000000000000000000000000000000000000000000000000000000000815260040161018090611c59565b60405180910390fd5b7f6ef95f06320e7a25a04a175ca677b7052bdd97131872c2192525a629f51be7706101b2610553565b346040516101c1929190611cd3565b60405180910390a1005b600080fd5b3480156101dc57600080fd5b506101f760048036038101906101f29190611d59565b61055b565b005b34801561020557600080fd5b50610220600480360381019061021b9190611dd7565b6105e5565b005b34801561022e57600080fd5b50610237610756565b6040516102449190611e04565b60405180910390f35b34801561025957600080fd5b50610274600480360381019061026f9190611e5d565b610760565b6040516102819190611e04565b60405180910390f35b34801561029657600080fd5b506102b160048036038101906102ac9190611e5d565b6107e7565b005b3480156102bf57600080fd5b506102da60048036038101906102d59190611d59565b610a66565b005b3480156102e857600080fd5b5061030360048036038101906102fe9190611e9d565b610af9565b005b34801561031157600080fd5b5061031a610b68565b005b34801561032857600080fd5b50610331610bd5565b60405161033e9190611e04565b60405180910390f35b34801561035357600080fd5b5061035c610bdb565b005b34801561036a57600080fd5b50610373610c74565b005b34801561038157600080fd5b5061038a610cfc565b6040516103979190611f52565b60405180910390f35b3480156103ac57600080fd5b506103c760048036038101906103c29190611f74565b610d8e565b6040516103d49190611fa1565b60405180910390f35b3480156103e957600080fd5b506103f2610dd6565b6040516103ff9190611fa1565b60405180910390f35b34801561041457600080fd5b5061042f600480360381019061042a9190611fbc565b610dff565b60405161043c9190611e04565b60405180910390f35b34801561045157600080fd5b5061045a610e48565b005b34801561046857600080fd5b50610483600480360381019061047e9190611fbc565b610ee1565b6040516104909190611e04565b60405180910390f35b3480156104a557600080fd5b506104c060048036038101906104bb9190611fbc565b610f2a565b005b3480156104ce57600080fd5b506104e960048036038101906104e49190611e9d565b6111c8565b6040516104f69190611e04565b60405180910390f35b34801561050b57600080fd5b50610514611211565b6040516105219190611e04565b60405180910390f35b34801561053657600080fd5b50610551600480360381019061054c9190611fbc565b61121b565b005b600033905090565b610563610553565b73ffffffffffffffffffffffffffffffffffffffff16610581610dd6565b73ffffffffffffffffffffffffffffffffffffffff16146105d7576040517f08c379a00000000000000000000000000000000000000000000000000000000081526004016105ce90612035565b60405180910390fd5b6105e18282611313565b5050565b6000600460008373ffffffffffffffffffffffffffffffffffffffff1673ffffffffffffffffffffffffffffffffffffffff1681526020019081526020016000205411610667576040517f08c379a000000000000000000000000000000000000000000000000000000000815260040161065e906120c7565b60405180910390fd5b6000610671611211565b4761067c9190612116565b90506000610693838361068e86610dff565b61155a565b905060008111156107515780600560008573ffffffffffffffffffffffffffffffffffffffff1673ffffffffffffffffffffffffffffffffffffffff16815260200190815260200160002060008282546106ed9190612116565b9250508190555080600260008282546107069190612116565b9250508190555061071783826115c8565b7fdf20fd1e76bc69d672e4814fafb2c449bba3a5369d8359adf9e05e6fde87b05683826040516107489291906121cb565b60405180910390a15b505050565b6000600154905090565b6000600a60008473ffffffffffffffffffffffffffffffffffffffff1673ffffffffffffffffffffffffffffffffffffffff16815260200190815260200160002060008373ffffffffffffffffffffffffffffffffffffffff1673ffffffffffffffffffffffffffffffffffffffff16815260200190815260200160002054905092915050565b6000600460008373ffffffffffffffffffffffffffffffffffffffff1673ffffffffffffffffffffffffffffffffffffffff1681526020019081526020016000205411610869576040517f08c379a0000000000000000000000000000000000000000000000000000000008152600401610860906120c7565b60405180910390fd5b6000610874836111c8565b8373ffffffffffffffffffffffffffffffffffffffff166370a08231306040518263ffffffff1660e01b81526004016108ad9190611fa1565b602060405180830381865afa1580156108ca573d6000803e3d6000fd5b505050506040513d601f19601f820116820180604052508101906108ee9190612209565b6108f89190612116565b90506000610910838361090b8787610760565b61155a565b90506000811115610a605780600a60008673ffffffffffffffffffffffffffffffffffffffff1673ffffffffffffffffffffffffffffffffffffffff16815260200190815260200160002060008573ffffffffffffffffffffffffffffffffffffffff1673ffffffffffffffffffffffffffffffffffffffff16815260200190815260200160002060008282546109a79190612116565b9250508190555080600960008673ffffffffffffffffffffffffffffffffffffffff1673ffffffffffffffffffffffffffffffffffffffff16815260200190815260200160002060008282546109fd9190612116565b92505081905550610a0f8484836116bc565b8373ffffffffffffffffffffffffffffffffffffffff167f3be5b7a71e84ed12875d241991c70855ac5817d847039e17a9d895c1ceb0f18a8483604051610a57929190611cd3565b60405180910390a25b50505050565b610a6e610553565b73ffffffffffffffffffffffffffffffffffffffff16610a8c610dd6565b73ffffffffffffffffffffffffffffffffffffffff1614610ae2576040517f08c379a0000000000000000000000000000000000000000000000000000000008152600401610ad990612035565b60405180910390fd5b610aeb82610f2a565b610af58282611313565b5050565b60005b600680549050811015610b6457610b518260068381548110610b2157610b20612236565b5b9060005260206000200160009054906101000a900473ffffffffffffffffffffffffffffffffffffffff166107e7565b8080610b5c90612265565b915050610afc565b5050565b60005b600680549050811015610bd257610bbf60068281548110610b8f57610b8e612236565b5b9060005260206000200160009054906101000a900473ffffffffffffffffffffffffffffffffffffffff166105e5565b8080610bca90612265565b915050610b6b565b50565b60075481565b610be3610553565b73ffffffffffffffffffffffffffffffffffffffff16610c01610dd6565b73ffffffffffffffffffffffffffffffffffffffff1614610c57576040517f08c379a0000000000000000000000000000000000000000000000000000000008152600401610c4e90612035565b60405180910390fd5b6001600860006101000a81548160ff021916908315150217905550565b610c7c610553565b73ffffffffffffffffffffffffffffffffffffffff16610c9a610dd6565b73ffffffffffffffffffffffffffffffffffffffff1614610cf0576040517f08c379a0000000000000000000000000000000000000000000000000000000008152600401610ce790612035565b60405180910390fd5b610cfa6000611742565b565b606060038054610d0b906122dd565b80601f0160208091040260200160405190810160405280929190818152602001828054610d37906122dd565b8015610d845780601f10610d5957610100808354040283529160200191610d84565b820191906000526020600020905b815481529060010190602001808311610d6757829003601f168201915b5050505050905090565b600060068281548110610da457610da3612236565b5b9060005260206000200160009054906101000a900473ffffffffffffffffffffffffffffffffffffffff169050919050565b60008060009054906101000a900473ffffffffffffffffffffffffffffffffffffffff16905090565b6000600560008373ffffffffffffffffffffffffffffffffffffffff1673ffffffffffffffffffffffffffffffffffffffff168152602001908152602001600020549050919050565b610e50610553565b73ffffffffffffffffffffffffffffffffffffffff16610e6e610dd6565b73ffffffffffffffffffffffffffffffffffffffff1614610ec4576040517f08c379a0000000000000000000000000000000000000000000000000000000008152600401610ebb90612035565b60405180910390fd5b6000600860006101000a81548160ff021916908315150217905550565b6000600460008373ffffffffffffffffffffffffffffffffffffffff1673ffffffffffffffffffffffffffffffffffffffff168152602001908152602001600020549050919050565b610f32610553565b73ffffffffffffffffffffffffffffffffffffffff16610f50610dd6565b73ffffffffffffffffffffffffffffffffffffffff1614610fa6576040517f08c379a0000000000000000000000000000000000000000000000000000000008152600401610f9d90612035565b60405180910390fd5b6000600460008373ffffffffffffffffffffffffffffffffffffffff1673ffffffffffffffffffffffffffffffffffffffff168152602001908152602001600020541415611029576040517f08c379a000000000000000000000000000000000000000000000000000000000815260040161102090612381565b60405180910390fd5b600080600090505b6006805490508110156110cb578273ffffffffffffffffffffffffffffffffffffffff166006828154811061106957611068612236565b5b9060005260206000200160009054906101000a900473ffffffffffffffffffffffffffffffffffffffff1673ffffffffffffffffffffffffffffffffffffffff1614156110b8578091506110cb565b80806110c390612265565b915050611031565b506001600760008282546110df91906123a1565b925050819055506110ef81611806565b6000600460008473ffffffffffffffffffffffffffffffffffffffff1673ffffffffffffffffffffffffffffffffffffffff1681526020019081526020016000205490506000600460008573ffffffffffffffffffffffffffffffffffffffff1673ffffffffffffffffffffffffffffffffffffffff168152602001908152602001600020819055508060015461118691906123a1565b6001819055507f2305f98842faa5f79744dc96dc1797fa6cebc566696ca339698e1591acafc8d2836040516111bb9190611fa1565b60405180910390a1505050565b6000600960008373ffffffffffffffffffffffffffffffffffffffff1673ffffffffffffffffffffffffffffffffffffffff168152602001908152602001600020549050919050565b6000600254905090565b611223610553565b73ffffffffffffffffffffffffffffffffffffffff16611241610dd6565b73ffffffffffffffffffffffffffffffffffffffff1614611297576040517f08c379a000000000000000000000000000000000000000000000000000000000815260040161128e90612035565b60405180910390fd5b600073ffffffffffffffffffffffffffffffffffffffff168173ffffffffffffffffffffffffffffffffffffffff161415611307576040517f08c379a00000000000000000000000000000000000000000000000000000000081526004016112fe90612447565b60405180910390fd5b61131081611742565b50565b600073ffffffffffffffffffffffffffffffffffffffff168273ffffffffffffffffffffffffffffffffffffffff161415611383576040517f08c379a000000000000000000000000000000000000000000000000000000000815260040161137a906124d9565b60405180910390fd5b600081116113c6576040517f08c379a00000000000000000000000000000000000000000000000000000000081526004016113bd9061256b565b60405180910390fd5b6000600460008473ffffffffffffffffffffffffffffffffffffffff1673ffffffffffffffffffffffffffffffffffffffff1681526020019081526020016000205414611448576040517f08c379a000000000000000000000000000000000000000000000000000000000815260040161143f906125fd565b60405180910390fd5b60016007600082825461145b9190612116565b925050819055506006829080600181540180825580915050600190039060005260206000200160009091909190916101000a81548173ffffffffffffffffffffffffffffffffffffffff021916908373ffffffffffffffffffffffffffffffffffffffff16021790555080600460008473ffffffffffffffffffffffffffffffffffffffff1673ffffffffffffffffffffffffffffffffffffffff16815260200190815260200160002081905550806001546115179190612116565b6001819055507f40c340f65e17194d14ddddb073d3c9f888e3cb52b5aae0c6c7706b4fbc905fac828260405161154e929190611cd3565b60405180910390a15050565b600081600154600460008773ffffffffffffffffffffffffffffffffffffffff1673ffffffffffffffffffffffffffffffffffffffff16815260200190815260200160002054856115ab919061261d565b6115b591906126a6565b6115bf91906123a1565b90509392505050565b8047101561160b576040517f08c379a000000000000000000000000000000000000000000000000000000000815260040161160290612723565b60405180910390fd5b60008273ffffffffffffffffffffffffffffffffffffffff168260405161163190612774565b60006040518083038185875af1925050503d806000811461166e576040519150601f19603f3d011682016040523d82523d6000602084013e611673565b606091505b50509050806116b7576040517f08c379a00000000000000000000000000000000000000000000000000000000081526004016116ae906127fb565b60405180910390fd5b505050565b61173d8363a9059cbb60e01b84846040516024016116db929190611cd3565b604051602081830303815290604052907bffffffffffffffffffffffffffffffffffffffffffffffffffffffff19166020820180517bffffffffffffffffffffffffffffffffffffffffffffffffffffffff838183161783525050505061190d565b505050565b60008060009054906101000a900473ffffffffffffffffffffffffffffffffffffffff169050816000806101000a81548173ffffffffffffffffffffffffffffffffffffffff021916908373ffffffffffffffffffffffffffffffffffffffff1602179055508173ffffffffffffffffffffffffffffffffffffffff168173ffffffffffffffffffffffffffffffffffffffff167f8be0079c531659141344cd1fd0a4f28419497f9722a3daafe3b4186f6b6457e060405160405180910390a35050565b600680549050811061181757600080fd5b6006600160068054905061182b91906123a1565b8154811061183c5761183b612236565b5b9060005260206000200160009054906101000a900473ffffffffffffffffffffffffffffffffffffffff166006828154811061187b5761187a612236565b5b9060005260206000200160006101000a81548173ffffffffffffffffffffffffffffffffffffffff021916908373ffffffffffffffffffffffffffffffffffffffff16021790555060068054806118d5576118d461281b565b5b6001900381819060005260206000200160006101000a81549073ffffffffffffffffffffffffffffffffffffffff0219169055905550565b600061196f826040518060400160405280602081526020017f5361666545524332303a206c6f772d6c6576656c2063616c6c206661696c65648152508573ffffffffffffffffffffffffffffffffffffffff166119d49092919063ffffffff16565b90506000815111156119cf578080602001905181019061198f9190612882565b6119ce576040517f08c379a00000000000000000000000000000000000000000000000000000000081526004016119c590612921565b60405180910390fd5b5b505050565b60606119e384846000856119ec565b90509392505050565b606082471015611a31576040517f08c379a0000000000000000000000000000000000000000000000000000000008152600401611a28906129b3565b60405180910390fd5b611a3a85611b00565b611a79576040517f08c379a0000000000000000000000000000000000000000000000000000000008152600401611a7090612a1f565b60405180910390fd5b6000808673ffffffffffffffffffffffffffffffffffffffff168587604051611aa29190612a7b565b60006040518083038185875af1925050503d8060008114611adf576040519150601f19603f3d011682016040523d82523d6000602084013e611ae4565b606091505b5091509150611af4828286611b23565b92505050949350505050565b6000808273ffffffffffffffffffffffffffffffffffffffff163b119050919050565b60608315611b3357829050611b83565b600083511115611b465782518084602001fd5b816040517f08c379a0000000000000000000000000000000000000000000000000000000008152600401611b7a9190611f52565b60405180910390fd5b9392505050565b600082825260208201905092915050565b7f457468207061796d656e74732068617665206265656e20626c6f636b6564212060008201527f436865636b2077686574686572206164647265737320696e207573652062656660208201527f6f72652073656e64696e6720616e797468696e67202845524332307320696e6360408201527f6c75646564212900000000000000000000000000000000000000000000000000606082015250565b6000611c43606783611b8a565b9150611c4e82611b9b565b608082019050919050565b60006020820190508181036000830152611c7281611c36565b9050919050565b600073ffffffffffffffffffffffffffffffffffffffff82169050919050565b6000611ca482611c79565b9050919050565b611cb481611c99565b82525050565b6000819050919050565b611ccd81611cba565b82525050565b6000604082019050611ce86000830185611cab565b611cf56020830184611cc4565b9392505050565b600080fd5b611d0a81611c99565b8114611d1557600080fd5b50565b600081359050611d2781611d01565b92915050565b611d3681611cba565b8114611d4157600080fd5b50565b600081359050611d5381611d2d565b92915050565b60008060408385031215611d7057611d6f611cfc565b5b6000611d7e85828601611d18565b9250506020611d8f85828601611d44565b9150509250929050565b6000611da482611c79565b9050919050565b611db481611d99565b8114611dbf57600080fd5b50565b600081359050611dd181611dab565b92915050565b600060208284031215611ded57611dec611cfc565b5b6000611dfb84828501611dc2565b91505092915050565b6000602082019050611e196000830184611cc4565b92915050565b6000611e2a82611c99565b9050919050565b611e3a81611e1f565b8114611e4557600080fd5b50565b600081359050611e5781611e31565b92915050565b60008060408385031215611e7457611e73611cfc565b5b6000611e8285828601611e48565b9250506020611e9385828601611d18565b9150509250929050565b600060208284031215611eb357611eb2611cfc565b5b6000611ec184828501611e48565b91505092915050565b600081519050919050565b60005b83811015611ef3578082015181840152602081019050611ed8565b83811115611f02576000848401525b50505050565b6000601f19601f8301169050919050565b6000611f2482611eca565b611f2e8185611b8a565b9350611f3e818560208601611ed5565b611f4781611f08565b840191505092915050565b60006020820190508181036000830152611f6c8184611f19565b905092915050565b600060208284031215611f8a57611f89611cfc565b5b6000611f9884828501611d44565b91505092915050565b6000602082019050611fb66000830184611cab565b92915050565b600060208284031215611fd257611fd1611cfc565b5b6000611fe084828501611d18565b91505092915050565b7f4f776e61626c653a2063616c6c6572206973206e6f7420746865206f776e6572600082015250565b600061201f602083611b8a565b915061202a82611fe9565b602082019050919050565b6000602082019050818103600083015261204e81612012565b9050919050565b7f466c657869626c655061796d656e7453706c69747465723a206163636f756e7460008201527f20686173206e6f20736861726573000000000000000000000000000000000000602082015250565b60006120b1602e83611b8a565b91506120bc82612055565b604082019050919050565b600060208201905081810360008301526120e0816120a4565b9050919050565b7f4e487b7100000000000000000000000000000000000000000000000000000000600052601160045260246000fd5b600061212182611cba565b915061212c83611cba565b9250827fffffffffffffffffffffffffffffffffffffffffffffffffffffffffffffffff03821115612161576121606120e7565b5b828201905092915050565b6000819050919050565b600061219161218c61218784611c79565b61216c565b611c79565b9050919050565b60006121a382612176565b9050919050565b60006121b582612198565b9050919050565b6121c5816121aa565b82525050565b60006040820190506121e060008301856121bc565b6121ed6020830184611cc4565b9392505050565b60008151905061220381611d2d565b92915050565b60006020828403121561221f5761221e611cfc565b5b600061222d848285016121f4565b91505092915050565b7f4e487b7100000000000000000000000000000000000000000000000000000000600052603260045260246000fd5b600061227082611cba565b91507fffffffffffffffffffffffffffffffffffffffffffffffffffffffffffffffff8214156122a3576122a26120e7565b5b600182019050919050565b7f4e487b7100000000000000000000000000000000000000000000000000000000600052602260045260246000fd5b600060028204905060018216806122f557607f821691505b60208210811415612309576123086122ae565b5b50919050565b7f466c657869626c655061796d656e7453706c69747465723a206163636f756e7460008201527f20646f6573206e6f742065786973742100000000000000000000000000000000602082015250565b600061236b603083611b8a565b91506123768261230f565b604082019050919050565b6000602082019050818103600083015261239a8161235e565b9050919050565b60006123ac82611cba565b91506123b783611cba565b9250828210156123ca576123c96120e7565b5b828203905092915050565b7f4f776e61626c653a206e6577206f776e657220697320746865207a65726f206160008201527f6464726573730000000000000000000000000000000000000000000000000000602082015250565b6000612431602683611b8a565b915061243c826123d5565b604082019050919050565b6000602082019050818103600083015261246081612424565b9050919050565b7f466c657869626c655061796d656e7453706c69747465723a206163636f756e7460008201527f20697320746865207a65726f2061646472657373000000000000000000000000602082015250565b60006124c3603483611b8a565b91506124ce82612467565b604082019050919050565b600060208201905081810360008301526124f2816124b6565b9050919050565b7f466c657869626c655061796d656e7453706c69747465723a207368617265732060008201527f6172652030000000000000000000000000000000000000000000000000000000602082015250565b6000612555602583611b8a565b9150612560826124f9565b604082019050919050565b6000602082019050818103600083015261258481612548565b9050919050565b7f466c657869626c655061796d656e7453706c69747465723a206163636f756e7460008201527f20616c7265616479206861732073686172657300000000000000000000000000602082015250565b60006125e7603383611b8a565b91506125f28261258b565b604082019050919050565b60006020820190508181036000830152612616816125da565b9050919050565b600061262882611cba565b915061263383611cba565b9250817fffffffffffffffffffffffffffffffffffffffffffffffffffffffffffffffff048311821515161561266c5761266b6120e7565b5b828202905092915050565b7f4e487b7100000000000000000000000000000000000000000000000000000000600052601260045260246000fd5b60006126b182611cba565b91506126bc83611cba565b9250826126cc576126cb612677565b5b828204905092915050565b7f416464726573733a20696e73756666696369656e742062616c616e6365000000600082015250565b600061270d601d83611b8a565b9150612718826126d7565b602082019050919050565b6000602082019050818103600083015261273c81612700565b9050919050565b600081905092915050565b50565b600061275e600083612743565b91506127698261274e565b600082019050919050565b600061277f82612751565b9150819050919050565b7f416464726573733a20756e61626c6520746f2073656e642076616c75652c207260008201527f6563697069656e74206d61792068617665207265766572746564000000000000602082015250565b60006127e5603a83611b8a565b91506127f082612789565b604082019050919050565b60006020820190508181036000830152612814816127d8565b9050919050565b7f4e487b7100000000000000000000000000000000000000000000000000000000600052603160045260246000fd5b60008115159050919050565b61285f8161284a565b811461286a57600080fd5b50565b60008151905061287c81612856565b92915050565b60006020828403121561289857612897611cfc565b5b60006128a68482850161286d565b91505092915050565b7f5361666545524332303a204552433230206f7065726174696f6e20646964206e60008201527f6f74207375636365656400000000000000000000000000000000000000000000602082015250565b600061290b602a83611b8a565b9150612916826128af565b604082019050919050565b6000602082019050818103600083015261293a816128fe565b9050919050565b7f416464726573733a20696e73756666696369656e742062616c616e636520666f60008201527f722063616c6c0000000000000000000000000000000000000000000000000000602082015250565b600061299d602683611b8a565b91506129a882612941565b604082019050919050565b600060208201905081810360008301526129cc81612990565b9050919050565b7f416464726573733a2063616c6c20746f206e6f6e2d636f6e7472616374000000600082015250565b6000612a09601d83611b8a565b9150612a14826129d3565b602082019050919050565b60006020820190508181036000830152612a38816129fc565b9050919050565b600081519050919050565b6000612a5582612a3f565b612a5f8185612743565b9350612a6f818560208601611ed5565b80840191505092915050565b6000612a878284612a4a565b91508190509291505056fea2646970667358221220f98343331887719c913cfff44fb02d20313fcd94781f640931648c62050b6aa264736f6c634300080c0033a2646970667358221220beff1eeeb5e67b4f9f2a1df83ee0e53fa8b312cdafb5c22728f7f5a09aa46e7464736f6c634300080c0033",
  "immutableReferences": {},
  "source": "// SPDX-License-Identifier: MIT\npragma solidity ^0.8.0;\n\nimport \"./FlexiblePaymentSplitter.sol\";\n\ncontract FlexiblePaymentSplitterFactory {\n    event ContractCreated(\n        address indexed owner,\n        address contractAddr,\n        string description\n    );\n    uint256 public numDeployedChildren;\n    FlexiblePaymentSplitter[] public deployedChildren;\n    mapping(address => address[]) public creatorToChildren;\n    mapping(address => uint256) public creatorToChildrenNum;\n\n    constructor() {}\n\n    function deployChild(\n        address[] memory payees,\n        uint256[] memory shares_,\n        string memory description\n    ) public {\n        FlexiblePaymentSplitter newIncomeSplit = new FlexiblePaymentSplitter(\n            payees,\n            shares_,\n            description,\n            msg.sender // otherwise the smart contract will be the owner\n        );\n        deployedChildren.push(newIncomeSplit);\n        numDeployedChildren += 1;\n        creatorToChildren[msg.sender].push(address(newIncomeSplit));\n        creatorToChildrenNum[msg.sender]++;\n        emit ContractCreated(msg.sender, address(newIncomeSplit), description);\n    }\n}\n",
  "sourcePath": "/home/psyf/Desktop/solidity_practice/easy-income-split/backend/contracts/FlexiblePaymentSplitterFactory.sol",
  "compiler": {
    "name": "solc",
    "version": "0.8.12+commit.f00d7308.Emscripten.clang"
  },
  "schemaVersion": "3.4.6",
  "updatedAt": "2022-03-21T09:22:07.538Z",
  "networkType": "ethereum",
  "devdoc": {
    "kind": "dev",
    "methods": {},
    "version": 1
  },
  "userdoc": {
    "kind": "user",
    "methods": {},
    "version": 1
  }
}