{
  "contractName": "FlexiblePaymentSplitterFactory",
  "abi": [
    {
      "inputs": [],
      "stateMutability": "nonpayable",
      "type": "constructor"
    },
    {
      "anonymous": false,
      "inputs": [
        {
          "indexed": true,
          "internalType": "address",
          "name": "owner",
          "type": "address"
        },
        {
          "indexed": false,
          "internalType": "address",
          "name": "contractAddr",
          "type": "address"
        },
        {
          "indexed": false,
          "internalType": "string",
          "name": "description",
          "type": "string"
        }
      ],
      "name": "ContractCreated",
      "type": "event"
    },
    {
      "inputs": [
        {
          "internalType": "address",
          "name": "",
          "type": "address"
        },
        {
          "internalType": "uint256",
          "name": "",
          "type": "uint256"
        }
      ],
      "name": "creatorToChildren",
      "outputs": [
        {
          "internalType": "address",
          "name": "",
          "type": "address"
        }
      ],
      "stateMutability": "view",
      "type": "function"
    },
    {
      "inputs": [
        {
          "internalType": "address",
          "name": "",
          "type": "address"
        }
      ],
      "name": "creatorToChildrenNum",
      "outputs": [
        {
          "internalType": "uint256",
          "name": "",
          "type": "uint256"
        }
      ],
      "stateMutability": "view",
      "type": "function"
    },
    {
      "inputs": [
        {
          "internalType": "uint256",
          "name": "",
          "type": "uint256"
        }
      ],
      "name": "deployedChildren",
      "outputs": [
        {
          "internalType": "contract FlexiblePaymentSplitter",
          "name": "",
          "type": "address"
        }
      ],
      "stateMutability": "view",
      "type": "function"
    },
    {
      "inputs": [],
      "name": "numDeployedChildren",
      "outputs": [
        {
          "internalType": "uint256",
          "name": "",
          "type": "uint256"
        }
      ],
      "stateMutability": "view",
      "type": "function"
    },
    {
      "inputs": [
        {
          "internalType": "address[]",
          "name": "payees",
          "type": "address[]"
        },
        {
          "internalType": "uint256[]",
          "name": "shares_",
          "type": "uint256[]"
        },
        {
          "internalType": "string",
          "name": "description",
          "type": "string"
        }
      ],
      "name": "deployChild",
      "outputs": [],
      "stateMutability": "nonpayable",
      "type": "function"
    }
  ],
  "bytecode": "0x608060405234801561001057600080fd5b50614d4d806100206000396000f3fe60806040523480156200001157600080fd5b50600436106200005e5760003560e01c806309865362146200006357806343105e13146200009957806354c960c514620000bb578063ec6c4e0614620000f1578063fb33c0ce1462000127575b600080fd5b6200008160048036038101906200007b919062000461565b62000147565b6040516200009091906200051e565b60405180910390f35b620000a362000187565b604051620000b291906200054c565b60405180910390f35b620000d96004803603810190620000d39190620005ae565b6200018d565b604051620000e8919062000606565b60405180910390f35b6200010f600480360381019062000109919062000623565b620001dc565b6040516200011e91906200054c565b60405180910390f35b6200014560048036038101906200013f919062000968565b620001f4565b005b600181815481106200015857600080fd5b906000526020600020016000915054906101000a900473ffffffffffffffffffffffffffffffffffffffff1681565b60005481565b60026020528160005260406000208181548110620001aa57600080fd5b906000526020600020016000915091509054906101000a900473ffffffffffffffffffffffffffffffffffffffff1681565b60036020528060005260406000206000915090505481565b600083838333604051620002089062000404565b62000217949392919062000c50565b604051809103906000f08015801562000234573d6000803e3d6000fd5b5090506001819080600181540180825580915050600190039060005260206000200160009091909190916101000a81548173ffffffffffffffffffffffffffffffffffffffff021916908373ffffffffffffffffffffffffffffffffffffffff1602179055506001600080828254620002ae919062000ce1565b92505081905550600260003373ffffffffffffffffffffffffffffffffffffffff1673ffffffffffffffffffffffffffffffffffffffff168152602001908152602001600020819080600181540180825580915050600190039060005260206000200160009091909190916101000a81548173ffffffffffffffffffffffffffffffffffffffff021916908373ffffffffffffffffffffffffffffffffffffffff160217905550600360003373ffffffffffffffffffffffffffffffffffffffff1673ffffffffffffffffffffffffffffffffffffffff1681526020019081526020016000206000815480929190620003a79062000d3e565b91905055503373ffffffffffffffffffffffffffffffffffffffff167fd127e714d98e23e914e6659df0aa28a12758da7c47219dbcc981d617de644b138284604051620003f692919062000d8c565b60405180910390a250505050565b613f578062000dc183390190565b6000604051905090565b600080fd5b600080fd5b6000819050919050565b6200043b8162000426565b81146200044757600080fd5b50565b6000813590506200045b8162000430565b92915050565b6000602082840312156200047a57620004796200041c565b5b60006200048a848285016200044a565b91505092915050565b600073ffffffffffffffffffffffffffffffffffffffff82169050919050565b6000819050919050565b6000620004de620004d8620004d28462000493565b620004b3565b62000493565b9050919050565b6000620004f282620004bd565b9050919050565b60006200050682620004e5565b9050919050565b6200051881620004f9565b82525050565b60006020820190506200053560008301846200050d565b92915050565b620005468162000426565b82525050565b60006020820190506200056360008301846200053b565b92915050565b6000620005768262000493565b9050919050565b620005888162000569565b81146200059457600080fd5b50565b600081359050620005a8816200057d565b92915050565b60008060408385031215620005c857620005c76200041c565b5b6000620005d88582860162000597565b9250506020620005eb858286016200044a565b9150509250929050565b620006008162000569565b82525050565b60006020820190506200061d6000830184620005f5565b92915050565b6000602082840312156200063c576200063b6200041c565b5b60006200064c8482850162000597565b91505092915050565b600080fd5b6000601f19601f8301169050919050565b7f4e487b7100000000000000000000000000000000000000000000000000000000600052604160045260246000fd5b620006a5826200065a565b810181811067ffffffffffffffff82111715620006c757620006c66200066b565b5b80604052505050565b6000620006dc62000412565b9050620006ea82826200069a565b919050565b600067ffffffffffffffff8211156200070d576200070c6200066b565b5b602082029050602081019050919050565b600080fd5b60006200073a6200073484620006ef565b620006d0565b9050808382526020820190506020840283018581111562000760576200075f6200071e565b5b835b818110156200078d578062000778888262000597565b84526020840193505060208101905062000762565b5050509392505050565b600082601f830112620007af57620007ae62000655565b5b8135620007c184826020860162000723565b91505092915050565b600067ffffffffffffffff821115620007e857620007e76200066b565b5b602082029050602081019050919050565b6000620008106200080a84620007ca565b620006d0565b905080838252602082019050602084028301858111156200083657620008356200071e565b5b835b818110156200086357806200084e88826200044a565b84526020840193505060208101905062000838565b5050509392505050565b600082601f83011262000885576200088462000655565b5b813562000897848260208601620007f9565b91505092915050565b600080fd5b600067ffffffffffffffff821115620008c357620008c26200066b565b5b620008ce826200065a565b9050602081019050919050565b82818337600083830152505050565b600062000901620008fb84620008a5565b620006d0565b90508281526020810184848401111562000920576200091f620008a0565b5b6200092d848285620008db565b509392505050565b600082601f8301126200094d576200094c62000655565b5b81356200095f848260208601620008ea565b91505092915050565b6000806000606084860312156200098457620009836200041c565b5b600084013567ffffffffffffffff811115620009a557620009a462000421565b5b620009b38682870162000797565b935050602084013567ffffffffffffffff811115620009d757620009d662000421565b5b620009e5868287016200086d565b925050604084013567ffffffffffffffff81111562000a095762000a0862000421565b5b62000a178682870162000935565b9150509250925092565b600081519050919050565b600082825260208201905092915050565b6000819050602082019050919050565b62000a588162000569565b82525050565b600062000a6c838362000a4d565b60208301905092915050565b6000602082019050919050565b600062000a928262000a21565b62000a9e818562000a2c565b935062000aab8362000a3d565b8060005b8381101562000ae257815162000ac6888262000a5e565b975062000ad38362000a78565b92505060018101905062000aaf565b5085935050505092915050565b600081519050919050565b600082825260208201905092915050565b6000819050602082019050919050565b62000b268162000426565b82525050565b600062000b3a838362000b1b565b60208301905092915050565b6000602082019050919050565b600062000b608262000aef565b62000b6c818562000afa565b935062000b798362000b0b565b8060005b8381101562000bb057815162000b94888262000b2c565b975062000ba18362000b46565b92505060018101905062000b7d565b5085935050505092915050565b600081519050919050565b600082825260208201905092915050565b60005b8381101562000bf957808201518184015260208101905062000bdc565b8381111562000c09576000848401525b50505050565b600062000c1c8262000bbd565b62000c28818562000bc8565b935062000c3a81856020860162000bd9565b62000c45816200065a565b840191505092915050565b6000608082019050818103600083015262000c6c818762000a85565b9050818103602083015262000c82818662000b53565b9050818103604083015262000c98818562000c0f565b905062000ca96060830184620005f5565b95945050505050565b7f4e487b7100000000000000000000000000000000000000000000000000000000600052601160045260246000fd5b600062000cee8262000426565b915062000cfb8362000426565b9250827fffffffffffffffffffffffffffffffffffffffffffffffffffffffffffffffff0382111562000d335762000d3262000cb2565b5b828201905092915050565b600062000d4b8262000426565b91507fffffffffffffffffffffffffffffffffffffffffffffffffffffffffffffffff82141562000d815762000d8062000cb2565b5b600182019050919050565b600060408201905062000da36000830185620005f5565b818103602083015262000db7818462000c0f565b9050939250505056fe608060405260405162003f5738038062003f57833981810160405281019062000029919062000bc4565b620000496200003d6200019660201b60201c565b6200019e60201b60201c565b825184511462000090576040517f08c379a0000000000000000000000000000000000000000000000000000000008152600401620000879062000d1a565b60405180910390fd5b6000845111620000d7576040517f08c379a0000000000000000000000000000000000000000000000000000000008152600401620000ce9062000db2565b60405180910390fd5b8160039080519060200190620000ef92919062000726565b506000600860006101000a81548160ff02191690831515021790555060005b84518110156200017a576200016485828151811062000132576200013162000dd4565b5b602002602001015185838151811062000150576200014f62000dd4565b5b60200260200101516200026260201b60201c565b8080620001719062000e32565b9150506200010e565b506200018c816200019e60201b60201c565b5050505062001159565b600033905090565b60008060009054906101000a900473ffffffffffffffffffffffffffffffffffffffff169050816000806101000a81548173ffffffffffffffffffffffffffffffffffffffff021916908373ffffffffffffffffffffffffffffffffffffffff1602179055508173ffffffffffffffffffffffffffffffffffffffff168173ffffffffffffffffffffffffffffffffffffffff167f8be0079c531659141344cd1fd0a4f28419497f9722a3daafe3b4186f6b6457e060405160405180910390a35050565b600073ffffffffffffffffffffffffffffffffffffffff168273ffffffffffffffffffffffffffffffffffffffff161415620002d5576040517f08c379a0000000000000000000000000000000000000000000000000000000008152600401620002cc9062000ef6565b60405180910390fd5b600081116200031b576040517f08c379a0000000000000000000000000000000000000000000000000000000008152600401620003129062000f8e565b60405180910390fd5b6000600460008473ffffffffffffffffffffffffffffffffffffffff1673ffffffffffffffffffffffffffffffffffffffff1681526020019081526020016000205414620003a0576040517f08c379a0000000000000000000000000000000000000000000000000000000008152600401620003979062001026565b60405180910390fd5b600160076000828254620003b5919062001048565b925050819055506006829080600181540180825580915050600190039060005260206000200160009091909190916101000a81548173ffffffffffffffffffffffffffffffffffffffff021916908373ffffffffffffffffffffffffffffffffffffffff16021790555080600460008473ffffffffffffffffffffffffffffffffffffffff1673ffffffffffffffffffffffffffffffffffffffff168152602001908152602001600020819055508060015462000473919062001048565b60018190555062000489620004d860201b60201c565b620004996200056260201b60201c565b7f40c340f65e17194d14ddddb073d3c9f888e3cb52b5aae0c6c7706b4fbc905fac8282604051620004cc929190620010c7565b60405180910390a15050565b60005b60075481101562000557576000620004f982620006db60201b60201c565b90506000600560008373ffffffffffffffffffffffffffffffffffffffff1673ffffffffffffffffffffffffffffffffffffffff168152602001908152602001600020819055505080806200054e9062000e32565b915050620004db565b506000600281905550565b60005b600b60000180549050811015620006d8576000600b600001828154811062000592576200059162000dd4565b5b9060005260206000200160009054906101000a900473ffffffffffffffffffffffffffffffffffffffff16905060005b6007548110156200067b576000620005e082620006db60201b60201c565b90506000600a60008573ffffffffffffffffffffffffffffffffffffffff1673ffffffffffffffffffffffffffffffffffffffff16815260200190815260200160002060008373ffffffffffffffffffffffffffffffffffffffff1673ffffffffffffffffffffffffffffffffffffffff16815260200190815260200160002081905550508080620006729062000e32565b915050620005c2565b506000600960008373ffffffffffffffffffffffffffffffffffffffff1673ffffffffffffffffffffffffffffffffffffffff16815260200190815260200160002081905550508080620006cf9062000e32565b91505062000565565b50565b600060068281548110620006f457620006f362000dd4565b5b9060005260206000200160009054906101000a900473ffffffffffffffffffffffffffffffffffffffff169050919050565b828054620007349062001123565b90600052602060002090601f016020900481019282620007585760008555620007a4565b82601f106200077357805160ff1916838001178555620007a4565b82800160010185558215620007a4579182015b82811115620007a357825182559160200191906001019062000786565b5b509050620007b39190620007b7565b5090565b5b80821115620007d2576000816000905550600101620007b8565b5090565b6000604051905090565b600080fd5b600080fd5b600080fd5b6000601f19601f8301169050919050565b7f4e487b7100000000000000000000000000000000000000000000000000000000600052604160045260246000fd5b6200083a82620007ef565b810181811067ffffffffffffffff821117156200085c576200085b62000800565b5b80604052505050565b600062000871620007d6565b90506200087f82826200082f565b919050565b600067ffffffffffffffff821115620008a257620008a162000800565b5b602082029050602081019050919050565b600080fd5b600073ffffffffffffffffffffffffffffffffffffffff82169050919050565b6000620008e582620008b8565b9050919050565b620008f781620008d8565b81146200090357600080fd5b50565b6000815190506200091781620008ec565b92915050565b6000620009346200092e8462000884565b62000865565b905080838252602082019050602084028301858111156200095a5762000959620008b3565b5b835b8181101562000987578062000972888262000906565b8452602084019350506020810190506200095c565b5050509392505050565b600082601f830112620009a957620009a8620007ea565b5b8151620009bb8482602086016200091d565b91505092915050565b600067ffffffffffffffff821115620009e257620009e162000800565b5b602082029050602081019050919050565b6000819050919050565b62000a0881620009f3565b811462000a1457600080fd5b50565b60008151905062000a2881620009fd565b92915050565b600062000a4562000a3f84620009c4565b62000865565b9050808382526020820190506020840283018581111562000a6b5762000a6a620008b3565b5b835b8181101562000a98578062000a83888262000a17565b84526020840193505060208101905062000a6d565b5050509392505050565b600082601f83011262000aba5762000ab9620007ea565b5b815162000acc84826020860162000a2e565b91505092915050565b600080fd5b600067ffffffffffffffff82111562000af85762000af762000800565b5b62000b0382620007ef565b9050602081019050919050565b60005b8381101562000b3057808201518184015260208101905062000b13565b8381111562000b40576000848401525b50505050565b600062000b5d62000b578462000ada565b62000865565b90508281526020810184848401111562000b7c5762000b7b62000ad5565b5b62000b8984828562000b10565b509392505050565b600082601f83011262000ba95762000ba8620007ea565b5b815162000bbb84826020860162000b46565b91505092915050565b6000806000806080858703121562000be15762000be0620007e0565b5b600085015167ffffffffffffffff81111562000c025762000c01620007e5565b5b62000c108782880162000991565b945050602085015167ffffffffffffffff81111562000c345762000c33620007e5565b5b62000c428782880162000aa2565b935050604085015167ffffffffffffffff81111562000c665762000c65620007e5565b5b62000c748782880162000b91565b925050606062000c878782880162000906565b91505092959194509250565b600082825260208201905092915050565b7f466c657869626c655061796d656e7453706c69747465723a207061796565732060008201527f616e6420736861726573206c656e677468206d69736d61746368000000000000602082015250565b600062000d02603a8362000c93565b915062000d0f8262000ca4565b604082019050919050565b6000602082019050818103600083015262000d358162000cf3565b9050919050565b7f466c657869626c655061796d656e7453706c69747465723a206e6f207061796560008201527f6573000000000000000000000000000000000000000000000000000000000000602082015250565b600062000d9a60228362000c93565b915062000da78262000d3c565b604082019050919050565b6000602082019050818103600083015262000dcd8162000d8b565b9050919050565b7f4e487b7100000000000000000000000000000000000000000000000000000000600052603260045260246000fd5b7f4e487b7100000000000000000000000000000000000000000000000000000000600052601160045260246000fd5b600062000e3f82620009f3565b91507fffffffffffffffffffffffffffffffffffffffffffffffffffffffffffffffff82141562000e755762000e7462000e03565b5b600182019050919050565b7f466c657869626c655061796d656e7453706c69747465723a206163636f756e7460008201527f20697320746865207a65726f2061646472657373000000000000000000000000602082015250565b600062000ede60348362000c93565b915062000eeb8262000e80565b604082019050919050565b6000602082019050818103600083015262000f118162000ecf565b9050919050565b7f466c657869626c655061796d656e7453706c69747465723a207368617265732060008201527f6172652030000000000000000000000000000000000000000000000000000000602082015250565b600062000f7660258362000c93565b915062000f838262000f18565b604082019050919050565b6000602082019050818103600083015262000fa98162000f67565b9050919050565b7f466c657869626c655061796d656e7453706c69747465723a206163636f756e7460008201527f20616c7265616479206861732073686172657300000000000000000000000000602082015250565b60006200100e60338362000c93565b91506200101b8262000fb0565b604082019050919050565b60006020820190508181036000830152620010418162000fff565b9050919050565b60006200105582620009f3565b91506200106283620009f3565b9250827fffffffffffffffffffffffffffffffffffffffffffffffffffffffffffffffff038211156200109a576200109962000e03565b5b828201905092915050565b620010b081620008d8565b82525050565b620010c181620009f3565b82525050565b6000604082019050620010de6000830185620010a5565b620010ed6020830184620010b6565b9392505050565b7f4e487b7100000000000000000000000000000000000000000000000000000000600052602260045260246000fd5b600060028204905060018216806200113c57607f821691505b60208210811415620011535762001152620010f4565b5b50919050565b612dee80620011696000396000f3fe60806040526004361061012e5760003560e01c8063715018a6116100ab578063be8766ba1161006f578063be8766ba14610445578063ce7c2ac21461045c578063d2aa680714610499578063d79779b2146104c2578063e33b7de3146104ff578063f2fde38b1461052a576101cb565b8063715018a61461035e5780637284e416146103755780638b83209b146103a05780638da5cb5b146103dd5780639852595c14610408576101cb565b80635634c592116100f25780635634c592146102b3578063580fc80a146102dc5780635be7fde8146103055780636916ef1d1461031c5780636e12d89014610347576101cb565b806318f9b023146101d057806319165587146101f95780633a98ef3914610222578063406072a91461024d57806348b750441461028a576101cb565b366101cb5760001515600860009054906101000a900460ff16151514610189576040517f08c379a000000000000000000000000000000000000000000000000000000000815260040161018090611f7f565b60405180910390fd5b7f6ef95f06320e7a25a04a175ca677b7052bdd97131872c2192525a629f51be7706101b2610553565b346040516101c1929190611ff9565b60405180910390a1005b600080fd5b3480156101dc57600080fd5b506101f760048036038101906101f2919061207f565b61055b565b005b34801561020557600080fd5b50610220600480360381019061021b91906120fd565b6105e5565b005b34801561022e57600080fd5b50610237610756565b604051610244919061212a565b60405180910390f35b34801561025957600080fd5b50610274600480360381019061026f9190612183565b610760565b604051610281919061212a565b60405180910390f35b34801561029657600080fd5b506102b160048036038101906102ac9190612183565b6107e7565b005b3480156102bf57600080fd5b506102da60048036038101906102d5919061207f565b610a6f565b005b3480156102e857600080fd5b5061030360048036038101906102fe91906121c3565b610b02565b005b34801561031157600080fd5b5061031a610b71565b005b34801561032857600080fd5b50610331610bde565b60405161033e919061212a565b60405180910390f35b34801561035357600080fd5b5061035c610be4565b005b34801561036a57600080fd5b50610373610c7d565b005b34801561038157600080fd5b5061038a610d05565b6040516103979190612278565b60405180910390f35b3480156103ac57600080fd5b506103c760048036038101906103c2919061229a565b610d97565b6040516103d491906122c7565b60405180910390f35b3480156103e957600080fd5b506103f2610ddf565b6040516103ff91906122c7565b60405180910390f35b34801561041457600080fd5b5061042f600480360381019061042a91906122e2565b610e08565b60405161043c919061212a565b60405180910390f35b34801561045157600080fd5b5061045a610e51565b005b34801561046857600080fd5b50610483600480360381019061047e91906122e2565b610eea565b604051610490919061212a565b60405180910390f35b3480156104a557600080fd5b506104c060048036038101906104bb91906122e2565b610f33565b005b3480156104ce57600080fd5b506104e960048036038101906104e491906121c3565b6111e1565b6040516104f6919061212a565b60405180910390f35b34801561050b57600080fd5b5061051461122a565b604051610521919061212a565b60405180910390f35b34801561053657600080fd5b50610551600480360381019061054c91906122e2565b611234565b005b600033905090565b610563610553565b73ffffffffffffffffffffffffffffffffffffffff16610581610ddf565b73ffffffffffffffffffffffffffffffffffffffff16146105d7576040517f08c379a00000000000000000000000000000000000000000000000000000000081526004016105ce9061235b565b60405180910390fd5b6105e1828261132c565b5050565b6000600460008373ffffffffffffffffffffffffffffffffffffffff1673ffffffffffffffffffffffffffffffffffffffff1681526020019081526020016000205411610667576040517f08c379a000000000000000000000000000000000000000000000000000000000815260040161065e906123ed565b60405180910390fd5b600061067161122a565b4761067c919061243c565b90506000610693838361068e86610e08565b611583565b905060008111156107515780600560008573ffffffffffffffffffffffffffffffffffffffff1673ffffffffffffffffffffffffffffffffffffffff16815260200190815260200160002060008282546106ed919061243c565b925050819055508060026000828254610706919061243c565b9250508190555061071783826115f1565b7fdf20fd1e76bc69d672e4814fafb2c449bba3a5369d8359adf9e05e6fde87b05683826040516107489291906124f1565b60405180910390a15b505050565b6000600154905090565b6000600a60008473ffffffffffffffffffffffffffffffffffffffff1673ffffffffffffffffffffffffffffffffffffffff16815260200190815260200160002060008373ffffffffffffffffffffffffffffffffffffffff1673ffffffffffffffffffffffffffffffffffffffff16815260200190815260200160002054905092915050565b6000600460008373ffffffffffffffffffffffffffffffffffffffff1673ffffffffffffffffffffffffffffffffffffffff1681526020019081526020016000205411610869576040517f08c379a0000000000000000000000000000000000000000000000000000000008152600401610860906123ed565b60405180910390fd5b6000610874836111e1565b8373ffffffffffffffffffffffffffffffffffffffff166370a08231306040518263ffffffff1660e01b81526004016108ad91906122c7565b602060405180830381865afa1580156108ca573d6000803e3d6000fd5b505050506040513d601f19601f820116820180604052508101906108ee919061252f565b6108f8919061243c565b90506000610910838361090b8787610760565b611583565b90506000811115610a6957610924846116e5565b80600a60008673ffffffffffffffffffffffffffffffffffffffff1673ffffffffffffffffffffffffffffffffffffffff16815260200190815260200160002060008573ffffffffffffffffffffffffffffffffffffffff1673ffffffffffffffffffffffffffffffffffffffff16815260200190815260200160002060008282546109b0919061243c565b9250508190555080600960008673ffffffffffffffffffffffffffffffffffffffff1673ffffffffffffffffffffffffffffffffffffffff1681526020019081526020016000206000828254610a06919061243c565b92505081905550610a188484836117fe565b8373ffffffffffffffffffffffffffffffffffffffff167f3be5b7a71e84ed12875d241991c70855ac5817d847039e17a9d895c1ceb0f18a8483604051610a60929190611ff9565b60405180910390a25b50505050565b610a77610553565b73ffffffffffffffffffffffffffffffffffffffff16610a95610ddf565b73ffffffffffffffffffffffffffffffffffffffff1614610aeb576040517f08c379a0000000000000000000000000000000000000000000000000000000008152600401610ae29061235b565b60405180910390fd5b610af482610f33565b610afe828261132c565b5050565b60005b600680549050811015610b6d57610b5a8260068381548110610b2a57610b2961255c565b5b9060005260206000200160009054906101000a900473ffffffffffffffffffffffffffffffffffffffff166107e7565b8080610b659061258b565b915050610b05565b5050565b60005b600680549050811015610bdb57610bc860068281548110610b9857610b9761255c565b5b9060005260206000200160009054906101000a900473ffffffffffffffffffffffffffffffffffffffff166105e5565b8080610bd39061258b565b915050610b74565b50565b60075481565b610bec610553565b73ffffffffffffffffffffffffffffffffffffffff16610c0a610ddf565b73ffffffffffffffffffffffffffffffffffffffff1614610c60576040517f08c379a0000000000000000000000000000000000000000000000000000000008152600401610c579061235b565b60405180910390fd5b6001600860006101000a81548160ff021916908315150217905550565b610c85610553565b73ffffffffffffffffffffffffffffffffffffffff16610ca3610ddf565b73ffffffffffffffffffffffffffffffffffffffff1614610cf9576040517f08c379a0000000000000000000000000000000000000000000000000000000008152600401610cf09061235b565b60405180910390fd5b610d036000611884565b565b606060038054610d1490612603565b80601f0160208091040260200160405190810160405280929190818152602001828054610d4090612603565b8015610d8d5780601f10610d6257610100808354040283529160200191610d8d565b820191906000526020600020905b815481529060010190602001808311610d7057829003601f168201915b5050505050905090565b600060068281548110610dad57610dac61255c565b5b9060005260206000200160009054906101000a900473ffffffffffffffffffffffffffffffffffffffff169050919050565b60008060009054906101000a900473ffffffffffffffffffffffffffffffffffffffff16905090565b6000600560008373ffffffffffffffffffffffffffffffffffffffff1673ffffffffffffffffffffffffffffffffffffffff168152602001908152602001600020549050919050565b610e59610553565b73ffffffffffffffffffffffffffffffffffffffff16610e77610ddf565b73ffffffffffffffffffffffffffffffffffffffff1614610ecd576040517f08c379a0000000000000000000000000000000000000000000000000000000008152600401610ec49061235b565b60405180910390fd5b6000600860006101000a81548160ff021916908315150217905550565b6000600460008373ffffffffffffffffffffffffffffffffffffffff1673ffffffffffffffffffffffffffffffffffffffff168152602001908152602001600020549050919050565b610f3b610553565b73ffffffffffffffffffffffffffffffffffffffff16610f59610ddf565b73ffffffffffffffffffffffffffffffffffffffff1614610faf576040517f08c379a0000000000000000000000000000000000000000000000000000000008152600401610fa69061235b565b60405180910390fd5b6000600460008373ffffffffffffffffffffffffffffffffffffffff1673ffffffffffffffffffffffffffffffffffffffff168152602001908152602001600020541415611032576040517f08c379a0000000000000000000000000000000000000000000000000000000008152600401611029906126a7565b60405180910390fd5b600080600090505b6006805490508110156110d4578273ffffffffffffffffffffffffffffffffffffffff16600682815481106110725761107161255c565b5b9060005260206000200160009054906101000a900473ffffffffffffffffffffffffffffffffffffffff1673ffffffffffffffffffffffffffffffffffffffff1614156110c1578091506110d4565b80806110cc9061258b565b91505061103a565b506001600760008282546110e891906126c7565b925050819055506110f881611948565b6000600460008473ffffffffffffffffffffffffffffffffffffffff1673ffffffffffffffffffffffffffffffffffffffff1681526020019081526020016000205490506000600460008573ffffffffffffffffffffffffffffffffffffffff1673ffffffffffffffffffffffffffffffffffffffff168152602001908152602001600020819055508060015461118f91906126c7565b60018190555061119d611a4f565b6111a5611acd565b7f2305f98842faa5f79744dc96dc1797fa6cebc566696ca339698e1591acafc8d2836040516111d491906122c7565b60405180910390a1505050565b6000600960008373ffffffffffffffffffffffffffffffffffffffff1673ffffffffffffffffffffffffffffffffffffffff168152602001908152602001600020549050919050565b6000600254905090565b61123c610553565b73ffffffffffffffffffffffffffffffffffffffff1661125a610ddf565b73ffffffffffffffffffffffffffffffffffffffff16146112b0576040517f08c379a00000000000000000000000000000000000000000000000000000000081526004016112a79061235b565b60405180910390fd5b600073ffffffffffffffffffffffffffffffffffffffff168173ffffffffffffffffffffffffffffffffffffffff161415611320576040517f08c379a00000000000000000000000000000000000000000000000000000000081526004016113179061276d565b60405180910390fd5b61132981611884565b50565b600073ffffffffffffffffffffffffffffffffffffffff168273ffffffffffffffffffffffffffffffffffffffff16141561139c576040517f08c379a0000000000000000000000000000000000000000000000000000000008152600401611393906127ff565b60405180910390fd5b600081116113df576040517f08c379a00000000000000000000000000000000000000000000000000000000081526004016113d690612891565b60405180910390fd5b6000600460008473ffffffffffffffffffffffffffffffffffffffff1673ffffffffffffffffffffffffffffffffffffffff1681526020019081526020016000205414611461576040517f08c379a000000000000000000000000000000000000000000000000000000000815260040161145890612923565b60405180910390fd5b600160076000828254611474919061243c565b925050819055506006829080600181540180825580915050600190039060005260206000200160009091909190916101000a81548173ffffffffffffffffffffffffffffffffffffffff021916908373ffffffffffffffffffffffffffffffffffffffff16021790555080600460008473ffffffffffffffffffffffffffffffffffffffff1673ffffffffffffffffffffffffffffffffffffffff1681526020019081526020016000208190555080600154611530919061243c565b60018190555061153e611a4f565b611546611acd565b7f40c340f65e17194d14ddddb073d3c9f888e3cb52b5aae0c6c7706b4fbc905fac8282604051611577929190611ff9565b60405180910390a15050565b600081600154600460008773ffffffffffffffffffffffffffffffffffffffff1673ffffffffffffffffffffffffffffffffffffffff16815260200190815260200160002054856115d49190612943565b6115de91906129cc565b6115e891906126c7565b90509392505050565b80471015611634576040517f08c379a000000000000000000000000000000000000000000000000000000000815260040161162b90612a49565b60405180910390fd5b60008273ffffffffffffffffffffffffffffffffffffffff168260405161165a90612a9a565b60006040518083038185875af1925050503d8060008114611697576040519150601f19603f3d011682016040523d82523d6000602084013e61169c565b606091505b50509050806116e0576040517f08c379a00000000000000000000000000000000000000000000000000000000081526004016116d790612b21565b60405180910390fd5b505050565b600b60010160008273ffffffffffffffffffffffffffffffffffffffff1673ffffffffffffffffffffffffffffffffffffffff16815260200190815260200160002060009054906101000a900460ff166117fb57600b600001819080600181540180825580915050600190039060005260206000200160009091909190916101000a81548173ffffffffffffffffffffffffffffffffffffffff021916908373ffffffffffffffffffffffffffffffffffffffff1602179055506001600b60010160008373ffffffffffffffffffffffffffffffffffffffff1673ffffffffffffffffffffffffffffffffffffffff16815260200190815260200160002060006101000a81548160ff0219169083151502179055505b50565b61187f8363a9059cbb60e01b848460405160240161181d929190611ff9565b604051602081830303815290604052907bffffffffffffffffffffffffffffffffffffffffffffffffffffffff19166020820180517bffffffffffffffffffffffffffffffffffffffffffffffffffffffff8381831617835250505050611c33565b505050565b60008060009054906101000a900473ffffffffffffffffffffffffffffffffffffffff169050816000806101000a81548173ffffffffffffffffffffffffffffffffffffffff021916908373ffffffffffffffffffffffffffffffffffffffff1602179055508173ffffffffffffffffffffffffffffffffffffffff168173ffffffffffffffffffffffffffffffffffffffff167f8be0079c531659141344cd1fd0a4f28419497f9722a3daafe3b4186f6b6457e060405160405180910390a35050565b600680549050811061195957600080fd5b6006600160068054905061196d91906126c7565b8154811061197e5761197d61255c565b5b9060005260206000200160009054906101000a900473ffffffffffffffffffffffffffffffffffffffff16600682815481106119bd576119bc61255c565b5b9060005260206000200160006101000a81548173ffffffffffffffffffffffffffffffffffffffff021916908373ffffffffffffffffffffffffffffffffffffffff1602179055506006805480611a1757611a16612b41565b5b6001900381819060005260206000200160006101000a81549073ffffffffffffffffffffffffffffffffffffffff0219169055905550565b60005b600754811015611ac2576000611a6782610d97565b90506000600560008373ffffffffffffffffffffffffffffffffffffffff1673ffffffffffffffffffffffffffffffffffffffff16815260200190815260200160002081905550508080611aba9061258b565b915050611a52565b506000600281905550565b60005b600b60000180549050811015611c30576000600b6000018281548110611af957611af861255c565b5b9060005260206000200160009054906101000a900473ffffffffffffffffffffffffffffffffffffffff16905060005b600754811015611bd6576000611b3e82610d97565b90506000600a60008573ffffffffffffffffffffffffffffffffffffffff1673ffffffffffffffffffffffffffffffffffffffff16815260200190815260200160002060008373ffffffffffffffffffffffffffffffffffffffff1673ffffffffffffffffffffffffffffffffffffffff16815260200190815260200160002081905550508080611bce9061258b565b915050611b29565b506000600960008373ffffffffffffffffffffffffffffffffffffffff1673ffffffffffffffffffffffffffffffffffffffff16815260200190815260200160002081905550508080611c289061258b565b915050611ad0565b50565b6000611c95826040518060400160405280602081526020017f5361666545524332303a206c6f772d6c6576656c2063616c6c206661696c65648152508573ffffffffffffffffffffffffffffffffffffffff16611cfa9092919063ffffffff16565b9050600081511115611cf55780806020019051810190611cb59190612ba8565b611cf4576040517f08c379a0000000000000000000000000000000000000000000000000000000008152600401611ceb90612c47565b60405180910390fd5b5b505050565b6060611d098484600085611d12565b90509392505050565b606082471015611d57576040517f08c379a0000000000000000000000000000000000000000000000000000000008152600401611d4e90612cd9565b60405180910390fd5b611d6085611e26565b611d9f576040517f08c379a0000000000000000000000000000000000000000000000000000000008152600401611d9690612d45565b60405180910390fd5b6000808673ffffffffffffffffffffffffffffffffffffffff168587604051611dc89190612da1565b60006040518083038185875af1925050503d8060008114611e05576040519150601f19603f3d011682016040523d82523d6000602084013e611e0a565b606091505b5091509150611e1a828286611e49565b92505050949350505050565b6000808273ffffffffffffffffffffffffffffffffffffffff163b119050919050565b60608315611e5957829050611ea9565b600083511115611e6c5782518084602001fd5b816040517f08c379a0000000000000000000000000000000000000000000000000000000008152600401611ea09190612278565b60405180910390fd5b9392505050565b600082825260208201905092915050565b7f457468207061796d656e74732068617665206265656e20626c6f636b6564212060008201527f436865636b2077686574686572206164647265737320696e207573652062656660208201527f6f72652073656e64696e6720616e797468696e67202845524332307320696e6360408201527f6c75646564212900000000000000000000000000000000000000000000000000606082015250565b6000611f69606783611eb0565b9150611f7482611ec1565b608082019050919050565b60006020820190508181036000830152611f9881611f5c565b9050919050565b600073ffffffffffffffffffffffffffffffffffffffff82169050919050565b6000611fca82611f9f565b9050919050565b611fda81611fbf565b82525050565b6000819050919050565b611ff381611fe0565b82525050565b600060408201905061200e6000830185611fd1565b61201b6020830184611fea565b9392505050565b600080fd5b61203081611fbf565b811461203b57600080fd5b50565b60008135905061204d81612027565b92915050565b61205c81611fe0565b811461206757600080fd5b50565b60008135905061207981612053565b92915050565b6000806040838503121561209657612095612022565b5b60006120a48582860161203e565b92505060206120b58582860161206a565b9150509250929050565b60006120ca82611f9f565b9050919050565b6120da816120bf565b81146120e557600080fd5b50565b6000813590506120f7816120d1565b92915050565b60006020828403121561211357612112612022565b5b6000612121848285016120e8565b91505092915050565b600060208201905061213f6000830184611fea565b92915050565b600061215082611fbf565b9050919050565b61216081612145565b811461216b57600080fd5b50565b60008135905061217d81612157565b92915050565b6000806040838503121561219a57612199612022565b5b60006121a88582860161216e565b92505060206121b98582860161203e565b9150509250929050565b6000602082840312156121d9576121d8612022565b5b60006121e78482850161216e565b91505092915050565b600081519050919050565b60005b838110156122195780820151818401526020810190506121fe565b83811115612228576000848401525b50505050565b6000601f19601f8301169050919050565b600061224a826121f0565b6122548185611eb0565b93506122648185602086016121fb565b61226d8161222e565b840191505092915050565b60006020820190508181036000830152612292818461223f565b905092915050565b6000602082840312156122b0576122af612022565b5b60006122be8482850161206a565b91505092915050565b60006020820190506122dc6000830184611fd1565b92915050565b6000602082840312156122f8576122f7612022565b5b60006123068482850161203e565b91505092915050565b7f4f776e61626c653a2063616c6c6572206973206e6f7420746865206f776e6572600082015250565b6000612345602083611eb0565b91506123508261230f565b602082019050919050565b6000602082019050818103600083015261237481612338565b9050919050565b7f466c657869626c655061796d656e7453706c69747465723a206163636f756e7460008201527f20686173206e6f20736861726573000000000000000000000000000000000000602082015250565b60006123d7602e83611eb0565b91506123e28261237b565b604082019050919050565b60006020820190508181036000830152612406816123ca565b9050919050565b7f4e487b7100000000000000000000000000000000000000000000000000000000600052601160045260246000fd5b600061244782611fe0565b915061245283611fe0565b9250827fffffffffffffffffffffffffffffffffffffffffffffffffffffffffffffffff038211156124875761248661240d565b5b828201905092915050565b6000819050919050565b60006124b76124b26124ad84611f9f565b612492565b611f9f565b9050919050565b60006124c98261249c565b9050919050565b60006124db826124be565b9050919050565b6124eb816124d0565b82525050565b600060408201905061250660008301856124e2565b6125136020830184611fea565b9392505050565b60008151905061252981612053565b92915050565b60006020828403121561254557612544612022565b5b60006125538482850161251a565b91505092915050565b7f4e487b7100000000000000000000000000000000000000000000000000000000600052603260045260246000fd5b600061259682611fe0565b91507fffffffffffffffffffffffffffffffffffffffffffffffffffffffffffffffff8214156125c9576125c861240d565b5b600182019050919050565b7f4e487b7100000000000000000000000000000000000000000000000000000000600052602260045260246000fd5b6000600282049050600182168061261b57607f821691505b6020821081141561262f5761262e6125d4565b5b50919050565b7f466c657869626c655061796d656e7453706c69747465723a206163636f756e7460008201527f20646f6573206e6f742065786973742100000000000000000000000000000000602082015250565b6000612691603083611eb0565b915061269c82612635565b604082019050919050565b600060208201905081810360008301526126c081612684565b9050919050565b60006126d282611fe0565b91506126dd83611fe0565b9250828210156126f0576126ef61240d565b5b828203905092915050565b7f4f776e61626c653a206e6577206f776e657220697320746865207a65726f206160008201527f6464726573730000000000000000000000000000000000000000000000000000602082015250565b6000612757602683611eb0565b9150612762826126fb565b604082019050919050565b600060208201905081810360008301526127868161274a565b9050919050565b7f466c657869626c655061796d656e7453706c69747465723a206163636f756e7460008201527f20697320746865207a65726f2061646472657373000000000000000000000000602082015250565b60006127e9603483611eb0565b91506127f48261278d565b604082019050919050565b60006020820190508181036000830152612818816127dc565b9050919050565b7f466c657869626c655061796d656e7453706c69747465723a207368617265732060008201527f6172652030000000000000000000000000000000000000000000000000000000602082015250565b600061287b602583611eb0565b91506128868261281f565b604082019050919050565b600060208201905081810360008301526128aa8161286e565b9050919050565b7f466c657869626c655061796d656e7453706c69747465723a206163636f756e7460008201527f20616c7265616479206861732073686172657300000000000000000000000000602082015250565b600061290d603383611eb0565b9150612918826128b1565b604082019050919050565b6000602082019050818103600083015261293c81612900565b9050919050565b600061294e82611fe0565b915061295983611fe0565b9250817fffffffffffffffffffffffffffffffffffffffffffffffffffffffffffffffff04831182151516156129925761299161240d565b5b828202905092915050565b7f4e487b7100000000000000000000000000000000000000000000000000000000600052601260045260246000fd5b60006129d782611fe0565b91506129e283611fe0565b9250826129f2576129f161299d565b5b828204905092915050565b7f416464726573733a20696e73756666696369656e742062616c616e6365000000600082015250565b6000612a33601d83611eb0565b9150612a3e826129fd565b602082019050919050565b60006020820190508181036000830152612a6281612a26565b9050919050565b600081905092915050565b50565b6000612a84600083612a69565b9150612a8f82612a74565b600082019050919050565b6000612aa582612a77565b9150819050919050565b7f416464726573733a20756e61626c6520746f2073656e642076616c75652c207260008201527f6563697069656e74206d61792068617665207265766572746564000000000000602082015250565b6000612b0b603a83611eb0565b9150612b1682612aaf565b604082019050919050565b60006020820190508181036000830152612b3a81612afe565b9050919050565b7f4e487b7100000000000000000000000000000000000000000000000000000000600052603160045260246000fd5b60008115159050919050565b612b8581612b70565b8114612b9057600080fd5b50565b600081519050612ba281612b7c565b92915050565b600060208284031215612bbe57612bbd612022565b5b6000612bcc84828501612b93565b91505092915050565b7f5361666545524332303a204552433230206f7065726174696f6e20646964206e60008201527f6f74207375636365656400000000000000000000000000000000000000000000602082015250565b6000612c31602a83611eb0565b9150612c3c82612bd5565b604082019050919050565b60006020820190508181036000830152612c6081612c24565b9050919050565b7f416464726573733a20696e73756666696369656e742062616c616e636520666f60008201527f722063616c6c0000000000000000000000000000000000000000000000000000602082015250565b6000612cc3602683611eb0565b9150612cce82612c67565b604082019050919050565b60006020820190508181036000830152612cf281612cb6565b9050919050565b7f416464726573733a2063616c6c20746f206e6f6e2d636f6e7472616374000000600082015250565b6000612d2f601d83611eb0565b9150612d3a82612cf9565b602082019050919050565b60006020820190508181036000830152612d5e81612d22565b9050919050565b600081519050919050565b6000612d7b82612d65565b612d858185612a69565b9350612d958185602086016121fb565b80840191505092915050565b6000612dad8284612d70565b91508190509291505056fea264697066735822122017f563eb284e75f20eb4f9200714c82135ed02f3636eb2f079cbbdbeee566f0764736f6c634300080c0033a26469706673582212200a2ab81a541a3155d7326e5a627d88334a3d3f8292d4df547fd8538e4529d63364736f6c634300080c0033",
  "immutableReferences": {},
  "source": "// SPDX-License-Identifier: MIT\npragma solidity ^0.8.0;\n\nimport \"./FlexiblePaymentSplitter.sol\";\n\ncontract FlexiblePaymentSplitterFactory {\n    event ContractCreated(\n        address indexed owner,\n        address contractAddr,\n        string description\n    );\n    uint256 public numDeployedChildren;\n    FlexiblePaymentSplitter[] public deployedChildren;\n    mapping(address => address[]) public creatorToChildren;\n    mapping(address => uint256) public creatorToChildrenNum;\n\n    constructor() {}\n\n    function deployChild(\n        address[] memory payees,\n        uint256[] memory shares_,\n        string memory description\n    ) public {\n        FlexiblePaymentSplitter newIncomeSplit = new FlexiblePaymentSplitter(\n            payees,\n            shares_,\n            description,\n            msg.sender // otherwise the smart contract will be the owner\n        );\n        deployedChildren.push(newIncomeSplit);\n        numDeployedChildren += 1;\n        creatorToChildren[msg.sender].push(address(newIncomeSplit));\n        creatorToChildrenNum[msg.sender]++;\n        emit ContractCreated(msg.sender, address(newIncomeSplit), description);\n    }\n}\n",
  "sourcePath": "/home/psyf/Desktop/solidity_practice/easy-income-split/backend/contracts/FlexiblePaymentSplitterFactory.sol",
  "compiler": {
    "name": "solc",
    "version": "0.8.12+commit.f00d7308.Emscripten.clang"
  },
  "schemaVersion": "3.4.6",
  "updatedAt": "2022-03-21T13:41:56.835Z",
  "devdoc": {
    "kind": "dev",
    "methods": {},
    "version": 1
  },
  "userdoc": {
    "kind": "user",
    "methods": {},
    "version": 1
  }
}