{
  "contractName": "FlexiblePaymentSplitter",
  "abi": [
    {
      "inputs": [
        {
          "internalType": "address[]",
          "name": "payees",
          "type": "address[]"
        },
        {
          "internalType": "uint256[]",
          "name": "shares_",
          "type": "uint256[]"
        },
        {
          "internalType": "string",
          "name": "description_",
          "type": "string"
        },
        {
          "internalType": "address",
          "name": "owner",
          "type": "address"
        }
      ],
      "stateMutability": "payable",
      "type": "constructor"
    },
    {
      "anonymous": false,
      "inputs": [
        {
          "indexed": true,
          "internalType": "contract IERC20",
          "name": "token",
          "type": "address"
        },
        {
          "indexed": false,
          "internalType": "address",
          "name": "to",
          "type": "address"
        },
        {
          "indexed": false,
          "internalType": "uint256",
          "name": "amount",
          "type": "uint256"
        }
      ],
      "name": "ERC20PaymentReleased",
      "type": "event"
    },
    {
      "anonymous": false,
      "inputs": [
        {
          "indexed": true,
          "internalType": "address",
          "name": "previousOwner",
          "type": "address"
        },
        {
          "indexed": true,
          "internalType": "address",
          "name": "newOwner",
          "type": "address"
        }
      ],
      "name": "OwnershipTransferred",
      "type": "event"
    },
    {
      "anonymous": false,
      "inputs": [
        {
          "indexed": false,
          "internalType": "address",
          "name": "account",
          "type": "address"
        },
        {
          "indexed": false,
          "internalType": "uint256",
          "name": "shares",
          "type": "uint256"
        }
      ],
      "name": "PayeeAdded",
      "type": "event"
    },
    {
      "anonymous": false,
      "inputs": [
        {
          "indexed": false,
          "internalType": "address",
          "name": "account",
          "type": "address"
        }
      ],
      "name": "PayeeDeleted",
      "type": "event"
    },
    {
      "anonymous": false,
      "inputs": [
        {
          "indexed": false,
          "internalType": "address",
          "name": "from",
          "type": "address"
        },
        {
          "indexed": false,
          "internalType": "uint256",
          "name": "amount",
          "type": "uint256"
        }
      ],
      "name": "PaymentReceived",
      "type": "event"
    },
    {
      "anonymous": false,
      "inputs": [
        {
          "indexed": false,
          "internalType": "address",
          "name": "to",
          "type": "address"
        },
        {
          "indexed": false,
          "internalType": "uint256",
          "name": "amount",
          "type": "uint256"
        }
      ],
      "name": "PaymentReleased",
      "type": "event"
    },
    {
      "inputs": [],
      "name": "numCurrentPayees",
      "outputs": [
        {
          "internalType": "uint256",
          "name": "",
          "type": "uint256"
        }
      ],
      "stateMutability": "view",
      "type": "function"
    },
    {
      "inputs": [],
      "name": "owner",
      "outputs": [
        {
          "internalType": "address",
          "name": "",
          "type": "address"
        }
      ],
      "stateMutability": "view",
      "type": "function"
    },
    {
      "inputs": [],
      "name": "renounceOwnership",
      "outputs": [],
      "stateMutability": "nonpayable",
      "type": "function"
    },
    {
      "inputs": [
        {
          "internalType": "address",
          "name": "newOwner",
          "type": "address"
        }
      ],
      "name": "transferOwnership",
      "outputs": [],
      "stateMutability": "nonpayable",
      "type": "function"
    },
    {
      "stateMutability": "payable",
      "type": "receive"
    },
    {
      "inputs": [],
      "name": "totalShares",
      "outputs": [
        {
          "internalType": "uint256",
          "name": "",
          "type": "uint256"
        }
      ],
      "stateMutability": "view",
      "type": "function"
    },
    {
      "inputs": [],
      "name": "description",
      "outputs": [
        {
          "internalType": "string",
          "name": "",
          "type": "string"
        }
      ],
      "stateMutability": "view",
      "type": "function"
    },
    {
      "inputs": [
        {
          "internalType": "contract IERC20",
          "name": "token",
          "type": "address"
        }
      ],
      "name": "totalReleased",
      "outputs": [
        {
          "internalType": "uint256",
          "name": "",
          "type": "uint256"
        }
      ],
      "stateMutability": "view",
      "type": "function"
    },
    {
      "inputs": [],
      "name": "totalReleased",
      "outputs": [
        {
          "internalType": "uint256",
          "name": "",
          "type": "uint256"
        }
      ],
      "stateMutability": "view",
      "type": "function"
    },
    {
      "inputs": [
        {
          "internalType": "address",
          "name": "account",
          "type": "address"
        }
      ],
      "name": "shares",
      "outputs": [
        {
          "internalType": "uint256",
          "name": "",
          "type": "uint256"
        }
      ],
      "stateMutability": "view",
      "type": "function"
    },
    {
      "inputs": [
        {
          "internalType": "contract IERC20",
          "name": "token",
          "type": "address"
        },
        {
          "internalType": "address",
          "name": "account",
          "type": "address"
        }
      ],
      "name": "released",
      "outputs": [
        {
          "internalType": "uint256",
          "name": "",
          "type": "uint256"
        }
      ],
      "stateMutability": "view",
      "type": "function"
    },
    {
      "inputs": [
        {
          "internalType": "address",
          "name": "account",
          "type": "address"
        }
      ],
      "name": "released",
      "outputs": [
        {
          "internalType": "uint256",
          "name": "",
          "type": "uint256"
        }
      ],
      "stateMutability": "view",
      "type": "function"
    },
    {
      "inputs": [
        {
          "internalType": "uint256",
          "name": "index",
          "type": "uint256"
        }
      ],
      "name": "payee",
      "outputs": [
        {
          "internalType": "address",
          "name": "",
          "type": "address"
        }
      ],
      "stateMutability": "view",
      "type": "function"
    },
    {
      "inputs": [
        {
          "internalType": "address payable",
          "name": "account",
          "type": "address"
        }
      ],
      "name": "release",
      "outputs": [],
      "stateMutability": "nonpayable",
      "type": "function"
    },
    {
      "inputs": [
        {
          "internalType": "contract IERC20",
          "name": "token",
          "type": "address"
        },
        {
          "internalType": "address",
          "name": "account",
          "type": "address"
        }
      ],
      "name": "release",
      "outputs": [],
      "stateMutability": "nonpayable",
      "type": "function"
    },
    {
      "inputs": [
        {
          "internalType": "address",
          "name": "account",
          "type": "address"
        }
      ],
      "name": "deletePayee",
      "outputs": [],
      "stateMutability": "nonpayable",
      "type": "function"
    },
    {
      "inputs": [
        {
          "internalType": "address",
          "name": "account",
          "type": "address"
        },
        {
          "internalType": "uint256",
          "name": "new_shares",
          "type": "uint256"
        }
      ],
      "name": "changeShares",
      "outputs": [],
      "stateMutability": "nonpayable",
      "type": "function"
    },
    {
      "inputs": [
        {
          "internalType": "contract IERC20",
          "name": "token",
          "type": "address"
        }
      ],
      "name": "releaseAll",
      "outputs": [],
      "stateMutability": "nonpayable",
      "type": "function"
    },
    {
      "inputs": [],
      "name": "releaseAll",
      "outputs": [],
      "stateMutability": "nonpayable",
      "type": "function"
    },
    {
      "inputs": [],
      "name": "blockEthPayments",
      "outputs": [],
      "stateMutability": "nonpayable",
      "type": "function"
    },
    {
      "inputs": [],
      "name": "unblockEthPayments",
      "outputs": [],
      "stateMutability": "nonpayable",
      "type": "function"
    }
  ],
  "bytecode": "0x60806040526040516200390538038062003905833981810160405281019062000029919062000956565b620000496200003d6200019660201b60201c565b6200019e60201b60201c565b825184511462000090576040517f08c379a0000000000000000000000000000000000000000000000000000000008152600401620000879062000aac565b60405180910390fd5b6000845111620000d7576040517f08c379a0000000000000000000000000000000000000000000000000000000008152600401620000ce9062000b44565b60405180910390fd5b8160039080519060200190620000ef929190620004b8565b506000600860006101000a81548160ff02191690831515021790555060005b84518110156200017a576200016485828151811062000132576200013162000b66565b5b602002602001015185838151811062000150576200014f62000b66565b5b60200260200101516200026260201b60201c565b8080620001719062000bc4565b9150506200010e565b506200018c816200019e60201b60201c565b5050505062000eeb565b600033905090565b60008060009054906101000a900473ffffffffffffffffffffffffffffffffffffffff169050816000806101000a81548173ffffffffffffffffffffffffffffffffffffffff021916908373ffffffffffffffffffffffffffffffffffffffff1602179055508173ffffffffffffffffffffffffffffffffffffffff168173ffffffffffffffffffffffffffffffffffffffff167f8be0079c531659141344cd1fd0a4f28419497f9722a3daafe3b4186f6b6457e060405160405180910390a35050565b600073ffffffffffffffffffffffffffffffffffffffff168273ffffffffffffffffffffffffffffffffffffffff161415620002d5576040517f08c379a0000000000000000000000000000000000000000000000000000000008152600401620002cc9062000c88565b60405180910390fd5b600081116200031b576040517f08c379a0000000000000000000000000000000000000000000000000000000008152600401620003129062000d20565b60405180910390fd5b6000600460008473ffffffffffffffffffffffffffffffffffffffff1673ffffffffffffffffffffffffffffffffffffffff1681526020019081526020016000205414620003a0576040517f08c379a0000000000000000000000000000000000000000000000000000000008152600401620003979062000db8565b60405180910390fd5b600160076000828254620003b5919062000dda565b925050819055506006829080600181540180825580915050600190039060005260206000200160009091909190916101000a81548173ffffffffffffffffffffffffffffffffffffffff021916908373ffffffffffffffffffffffffffffffffffffffff16021790555080600460008473ffffffffffffffffffffffffffffffffffffffff1673ffffffffffffffffffffffffffffffffffffffff168152602001908152602001600020819055508060015462000473919062000dda565b6001819055507f40c340f65e17194d14ddddb073d3c9f888e3cb52b5aae0c6c7706b4fbc905fac8282604051620004ac92919062000e59565b60405180910390a15050565b828054620004c69062000eb5565b90600052602060002090601f016020900481019282620004ea576000855562000536565b82601f106200050557805160ff191683800117855562000536565b8280016001018555821562000536579182015b828111156200053557825182559160200191906001019062000518565b5b50905062000545919062000549565b5090565b5b80821115620005645760008160009055506001016200054a565b5090565b6000604051905090565b600080fd5b600080fd5b600080fd5b6000601f19601f8301169050919050565b7f4e487b7100000000000000000000000000000000000000000000000000000000600052604160045260246000fd5b620005cc8262000581565b810181811067ffffffffffffffff82111715620005ee57620005ed62000592565b5b80604052505050565b60006200060362000568565b9050620006118282620005c1565b919050565b600067ffffffffffffffff82111562000634576200063362000592565b5b602082029050602081019050919050565b600080fd5b600073ffffffffffffffffffffffffffffffffffffffff82169050919050565b600062000677826200064a565b9050919050565b62000689816200066a565b81146200069557600080fd5b50565b600081519050620006a9816200067e565b92915050565b6000620006c6620006c08462000616565b620005f7565b90508083825260208201905060208402830185811115620006ec57620006eb62000645565b5b835b8181101562000719578062000704888262000698565b845260208401935050602081019050620006ee565b5050509392505050565b600082601f8301126200073b576200073a6200057c565b5b81516200074d848260208601620006af565b91505092915050565b600067ffffffffffffffff82111562000774576200077362000592565b5b602082029050602081019050919050565b6000819050919050565b6200079a8162000785565b8114620007a657600080fd5b50565b600081519050620007ba816200078f565b92915050565b6000620007d7620007d18462000756565b620005f7565b90508083825260208201905060208402830185811115620007fd57620007fc62000645565b5b835b818110156200082a5780620008158882620007a9565b845260208401935050602081019050620007ff565b5050509392505050565b600082601f8301126200084c576200084b6200057c565b5b81516200085e848260208601620007c0565b91505092915050565b600080fd5b600067ffffffffffffffff8211156200088a576200088962000592565b5b620008958262000581565b9050602081019050919050565b60005b83811015620008c2578082015181840152602081019050620008a5565b83811115620008d2576000848401525b50505050565b6000620008ef620008e9846200086c565b620005f7565b9050828152602081018484840111156200090e576200090d62000867565b5b6200091b848285620008a2565b509392505050565b600082601f8301126200093b576200093a6200057c565b5b81516200094d848260208601620008d8565b91505092915050565b6000806000806080858703121562000973576200097262000572565b5b600085015167ffffffffffffffff81111562000994576200099362000577565b5b620009a28782880162000723565b945050602085015167ffffffffffffffff811115620009c657620009c562000577565b5b620009d48782880162000834565b935050604085015167ffffffffffffffff811115620009f857620009f762000577565b5b62000a068782880162000923565b925050606062000a198782880162000698565b91505092959194509250565b600082825260208201905092915050565b7f466c657869626c655061796d656e7453706c69747465723a207061796565732060008201527f616e6420736861726573206c656e677468206d69736d61746368000000000000602082015250565b600062000a94603a8362000a25565b915062000aa18262000a36565b604082019050919050565b6000602082019050818103600083015262000ac78162000a85565b9050919050565b7f466c657869626c655061796d656e7453706c69747465723a206e6f207061796560008201527f6573000000000000000000000000000000000000000000000000000000000000602082015250565b600062000b2c60228362000a25565b915062000b398262000ace565b604082019050919050565b6000602082019050818103600083015262000b5f8162000b1d565b9050919050565b7f4e487b7100000000000000000000000000000000000000000000000000000000600052603260045260246000fd5b7f4e487b7100000000000000000000000000000000000000000000000000000000600052601160045260246000fd5b600062000bd18262000785565b91507fffffffffffffffffffffffffffffffffffffffffffffffffffffffffffffffff82141562000c075762000c0662000b95565b5b600182019050919050565b7f466c657869626c655061796d656e7453706c69747465723a206163636f756e7460008201527f20697320746865207a65726f2061646472657373000000000000000000000000602082015250565b600062000c7060348362000a25565b915062000c7d8262000c12565b604082019050919050565b6000602082019050818103600083015262000ca38162000c61565b9050919050565b7f466c657869626c655061796d656e7453706c69747465723a207368617265732060008201527f6172652030000000000000000000000000000000000000000000000000000000602082015250565b600062000d0860258362000a25565b915062000d158262000caa565b604082019050919050565b6000602082019050818103600083015262000d3b8162000cf9565b9050919050565b7f466c657869626c655061796d656e7453706c69747465723a206163636f756e7460008201527f20616c7265616479206861732073686172657300000000000000000000000000602082015250565b600062000da060338362000a25565b915062000dad8262000d42565b604082019050919050565b6000602082019050818103600083015262000dd38162000d91565b9050919050565b600062000de78262000785565b915062000df48362000785565b9250827fffffffffffffffffffffffffffffffffffffffffffffffffffffffffffffffff0382111562000e2c5762000e2b62000b95565b5b828201905092915050565b62000e42816200066a565b82525050565b62000e538162000785565b82525050565b600060408201905062000e70600083018562000e37565b62000e7f602083018462000e48565b9392505050565b7f4e487b7100000000000000000000000000000000000000000000000000000000600052602260045260246000fd5b6000600282049050600182168062000ece57607f821691505b6020821081141562000ee55762000ee462000e86565b5b50919050565b612a0a8062000efb6000396000f3fe6080604052600436106101235760003560e01c80637284e416116100a0578063ce7c2ac211610064578063ce7c2ac214610428578063d2aa680714610465578063d79779b21461048e578063e33b7de3146104cb578063f2fde38b146104f6576101c0565b80637284e416146103415780638b83209b1461036c5780638da5cb5b146103a95780639852595c146103d4578063be8766ba14610411576101c0565b8063580fc80a116100e7578063580fc80a146102a85780635be7fde8146102d15780636916ef1d146102e85780636e12d89014610313578063715018a61461032a576101c0565b806319165587146101c55780633a98ef39146101ee578063406072a91461021957806348b75044146102565780635634c5921461027f576101c0565b366101c05760001515600860009054906101000a900460ff1615151461017e576040517f08c379a000000000000000000000000000000000000000000000000000000000815260040161017590611b9b565b60405180910390fd5b7f6ef95f06320e7a25a04a175ca677b7052bdd97131872c2192525a629f51be7706101a761051f565b346040516101b6929190611c15565b60405180910390a1005b600080fd5b3480156101d157600080fd5b506101ec60048036038101906101e79190611c81565b610527565b005b3480156101fa57600080fd5b50610203610698565b6040516102109190611cae565b60405180910390f35b34801561022557600080fd5b50610240600480360381019061023b9190611d33565b6106a2565b60405161024d9190611cae565b60405180910390f35b34801561026257600080fd5b5061027d60048036038101906102789190611d33565b610729565b005b34801561028b57600080fd5b506102a660048036038101906102a19190611d9f565b6109a8565b005b3480156102b457600080fd5b506102cf60048036038101906102ca9190611ddf565b610a3b565b005b3480156102dd57600080fd5b506102e6610aaa565b005b3480156102f457600080fd5b506102fd610b17565b60405161030a9190611cae565b60405180910390f35b34801561031f57600080fd5b50610328610b1d565b005b34801561033657600080fd5b5061033f610bb6565b005b34801561034d57600080fd5b50610356610c3e565b6040516103639190611e94565b60405180910390f35b34801561037857600080fd5b50610393600480360381019061038e9190611eb6565b610cd0565b6040516103a09190611ee3565b60405180910390f35b3480156103b557600080fd5b506103be610d18565b6040516103cb9190611ee3565b60405180910390f35b3480156103e057600080fd5b506103fb60048036038101906103f69190611efe565b610d41565b6040516104089190611cae565b60405180910390f35b34801561041d57600080fd5b50610426610d8a565b005b34801561043457600080fd5b5061044f600480360381019061044a9190611efe565b610e23565b60405161045c9190611cae565b60405180910390f35b34801561047157600080fd5b5061048c60048036038101906104879190611efe565b610e6c565b005b34801561049a57600080fd5b506104b560048036038101906104b09190611ddf565b61110a565b6040516104c29190611cae565b60405180910390f35b3480156104d757600080fd5b506104e0611153565b6040516104ed9190611cae565b60405180910390f35b34801561050257600080fd5b5061051d60048036038101906105189190611efe565b61115d565b005b600033905090565b6000600460008373ffffffffffffffffffffffffffffffffffffffff1673ffffffffffffffffffffffffffffffffffffffff16815260200190815260200160002054116105a9576040517f08c379a00000000000000000000000000000000000000000000000000000000081526004016105a090611f9d565b60405180910390fd5b60006105b3611153565b476105be9190611fec565b905060006105d583836105d086610d41565b611255565b905060008111156106935780600560008573ffffffffffffffffffffffffffffffffffffffff1673ffffffffffffffffffffffffffffffffffffffff168152602001908152602001600020600082825461062f9190611fec565b9250508190555080600260008282546106489190611fec565b9250508190555061065983826112c3565b7fdf20fd1e76bc69d672e4814fafb2c449bba3a5369d8359adf9e05e6fde87b056838260405161068a9291906120a1565b60405180910390a15b505050565b6000600154905090565b6000600a60008473ffffffffffffffffffffffffffffffffffffffff1673ffffffffffffffffffffffffffffffffffffffff16815260200190815260200160002060008373ffffffffffffffffffffffffffffffffffffffff1673ffffffffffffffffffffffffffffffffffffffff16815260200190815260200160002054905092915050565b6000600460008373ffffffffffffffffffffffffffffffffffffffff1673ffffffffffffffffffffffffffffffffffffffff16815260200190815260200160002054116107ab576040517f08c379a00000000000000000000000000000000000000000000000000000000081526004016107a290611f9d565b60405180910390fd5b60006107b68361110a565b8373ffffffffffffffffffffffffffffffffffffffff166370a08231306040518263ffffffff1660e01b81526004016107ef9190611ee3565b602060405180830381865afa15801561080c573d6000803e3d6000fd5b505050506040513d601f19601f8201168201806040525081019061083091906120df565b61083a9190611fec565b90506000610852838361084d87876106a2565b611255565b905060008111156109a25780600a60008673ffffffffffffffffffffffffffffffffffffffff1673ffffffffffffffffffffffffffffffffffffffff16815260200190815260200160002060008573ffffffffffffffffffffffffffffffffffffffff1673ffffffffffffffffffffffffffffffffffffffff16815260200190815260200160002060008282546108e99190611fec565b9250508190555080600960008673ffffffffffffffffffffffffffffffffffffffff1673ffffffffffffffffffffffffffffffffffffffff168152602001908152602001600020600082825461093f9190611fec565b925050819055506109518484836113b7565b8373ffffffffffffffffffffffffffffffffffffffff167f3be5b7a71e84ed12875d241991c70855ac5817d847039e17a9d895c1ceb0f18a8483604051610999929190611c15565b60405180910390a25b50505050565b6109b061051f565b73ffffffffffffffffffffffffffffffffffffffff166109ce610d18565b73ffffffffffffffffffffffffffffffffffffffff1614610a24576040517f08c379a0000000000000000000000000000000000000000000000000000000008152600401610a1b90612158565b60405180910390fd5b610a2d82610e6c565b610a37828261143d565b5050565b60005b600680549050811015610aa657610a938260068381548110610a6357610a62612178565b5b9060005260206000200160009054906101000a900473ffffffffffffffffffffffffffffffffffffffff16610729565b8080610a9e906121a7565b915050610a3e565b5050565b60005b600680549050811015610b1457610b0160068281548110610ad157610ad0612178565b5b9060005260206000200160009054906101000a900473ffffffffffffffffffffffffffffffffffffffff16610527565b8080610b0c906121a7565b915050610aad565b50565b60075481565b610b2561051f565b73ffffffffffffffffffffffffffffffffffffffff16610b43610d18565b73ffffffffffffffffffffffffffffffffffffffff1614610b99576040517f08c379a0000000000000000000000000000000000000000000000000000000008152600401610b9090612158565b60405180910390fd5b6001600860006101000a81548160ff021916908315150217905550565b610bbe61051f565b73ffffffffffffffffffffffffffffffffffffffff16610bdc610d18565b73ffffffffffffffffffffffffffffffffffffffff1614610c32576040517f08c379a0000000000000000000000000000000000000000000000000000000008152600401610c2990612158565b60405180910390fd5b610c3c6000611684565b565b606060038054610c4d9061221f565b80601f0160208091040260200160405190810160405280929190818152602001828054610c799061221f565b8015610cc65780601f10610c9b57610100808354040283529160200191610cc6565b820191906000526020600020905b815481529060010190602001808311610ca957829003601f168201915b5050505050905090565b600060068281548110610ce657610ce5612178565b5b9060005260206000200160009054906101000a900473ffffffffffffffffffffffffffffffffffffffff169050919050565b60008060009054906101000a900473ffffffffffffffffffffffffffffffffffffffff16905090565b6000600560008373ffffffffffffffffffffffffffffffffffffffff1673ffffffffffffffffffffffffffffffffffffffff168152602001908152602001600020549050919050565b610d9261051f565b73ffffffffffffffffffffffffffffffffffffffff16610db0610d18565b73ffffffffffffffffffffffffffffffffffffffff1614610e06576040517f08c379a0000000000000000000000000000000000000000000000000000000008152600401610dfd90612158565b60405180910390fd5b6000600860006101000a81548160ff021916908315150217905550565b6000600460008373ffffffffffffffffffffffffffffffffffffffff1673ffffffffffffffffffffffffffffffffffffffff168152602001908152602001600020549050919050565b610e7461051f565b73ffffffffffffffffffffffffffffffffffffffff16610e92610d18565b73ffffffffffffffffffffffffffffffffffffffff1614610ee8576040517f08c379a0000000000000000000000000000000000000000000000000000000008152600401610edf90612158565b60405180910390fd5b6000600460008373ffffffffffffffffffffffffffffffffffffffff1673ffffffffffffffffffffffffffffffffffffffff168152602001908152602001600020541415610f6b576040517f08c379a0000000000000000000000000000000000000000000000000000000008152600401610f62906122c3565b60405180910390fd5b600080600090505b60068054905081101561100d578273ffffffffffffffffffffffffffffffffffffffff1660068281548110610fab57610faa612178565b5b9060005260206000200160009054906101000a900473ffffffffffffffffffffffffffffffffffffffff1673ffffffffffffffffffffffffffffffffffffffff161415610ffa5780915061100d565b8080611005906121a7565b915050610f73565b5060016007600082825461102191906122e3565b9250508190555061103181611748565b6000600460008473ffffffffffffffffffffffffffffffffffffffff1673ffffffffffffffffffffffffffffffffffffffff1681526020019081526020016000205490506000600460008573ffffffffffffffffffffffffffffffffffffffff1673ffffffffffffffffffffffffffffffffffffffff16815260200190815260200160002081905550806001546110c891906122e3565b6001819055507f2305f98842faa5f79744dc96dc1797fa6cebc566696ca339698e1591acafc8d2836040516110fd9190611ee3565b60405180910390a1505050565b6000600960008373ffffffffffffffffffffffffffffffffffffffff1673ffffffffffffffffffffffffffffffffffffffff168152602001908152602001600020549050919050565b6000600254905090565b61116561051f565b73ffffffffffffffffffffffffffffffffffffffff16611183610d18565b73ffffffffffffffffffffffffffffffffffffffff16146111d9576040517f08c379a00000000000000000000000000000000000000000000000000000000081526004016111d090612158565b60405180910390fd5b600073ffffffffffffffffffffffffffffffffffffffff168173ffffffffffffffffffffffffffffffffffffffff161415611249576040517f08c379a000000000000000000000000000000000000000000000000000000000815260040161124090612389565b60405180910390fd5b61125281611684565b50565b600081600154600460008773ffffffffffffffffffffffffffffffffffffffff1673ffffffffffffffffffffffffffffffffffffffff16815260200190815260200160002054856112a691906123a9565b6112b09190612432565b6112ba91906122e3565b90509392505050565b80471015611306576040517f08c379a00000000000000000000000000000000000000000000000000000000081526004016112fd906124af565b60405180910390fd5b60008273ffffffffffffffffffffffffffffffffffffffff168260405161132c90612500565b60006040518083038185875af1925050503d8060008114611369576040519150601f19603f3d011682016040523d82523d6000602084013e61136e565b606091505b50509050806113b2576040517f08c379a00000000000000000000000000000000000000000000000000000000081526004016113a990612587565b60405180910390fd5b505050565b6114388363a9059cbb60e01b84846040516024016113d6929190611c15565b604051602081830303815290604052907bffffffffffffffffffffffffffffffffffffffffffffffffffffffff19166020820180517bffffffffffffffffffffffffffffffffffffffffffffffffffffffff838183161783525050505061184f565b505050565b600073ffffffffffffffffffffffffffffffffffffffff168273ffffffffffffffffffffffffffffffffffffffff1614156114ad576040517f08c379a00000000000000000000000000000000000000000000000000000000081526004016114a490612619565b60405180910390fd5b600081116114f0576040517f08c379a00000000000000000000000000000000000000000000000000000000081526004016114e7906126ab565b60405180910390fd5b6000600460008473ffffffffffffffffffffffffffffffffffffffff1673ffffffffffffffffffffffffffffffffffffffff1681526020019081526020016000205414611572576040517f08c379a00000000000000000000000000000000000000000000000000000000081526004016115699061273d565b60405180910390fd5b6001600760008282546115859190611fec565b925050819055506006829080600181540180825580915050600190039060005260206000200160009091909190916101000a81548173ffffffffffffffffffffffffffffffffffffffff021916908373ffffffffffffffffffffffffffffffffffffffff16021790555080600460008473ffffffffffffffffffffffffffffffffffffffff1673ffffffffffffffffffffffffffffffffffffffff16815260200190815260200160002081905550806001546116419190611fec565b6001819055507f40c340f65e17194d14ddddb073d3c9f888e3cb52b5aae0c6c7706b4fbc905fac8282604051611678929190611c15565b60405180910390a15050565b60008060009054906101000a900473ffffffffffffffffffffffffffffffffffffffff169050816000806101000a81548173ffffffffffffffffffffffffffffffffffffffff021916908373ffffffffffffffffffffffffffffffffffffffff1602179055508173ffffffffffffffffffffffffffffffffffffffff168173ffffffffffffffffffffffffffffffffffffffff167f8be0079c531659141344cd1fd0a4f28419497f9722a3daafe3b4186f6b6457e060405160405180910390a35050565b600680549050811061175957600080fd5b6006600160068054905061176d91906122e3565b8154811061177e5761177d612178565b5b9060005260206000200160009054906101000a900473ffffffffffffffffffffffffffffffffffffffff16600682815481106117bd576117bc612178565b5b9060005260206000200160006101000a81548173ffffffffffffffffffffffffffffffffffffffff021916908373ffffffffffffffffffffffffffffffffffffffff16021790555060068054806118175761181661275d565b5b6001900381819060005260206000200160006101000a81549073ffffffffffffffffffffffffffffffffffffffff0219169055905550565b60006118b1826040518060400160405280602081526020017f5361666545524332303a206c6f772d6c6576656c2063616c6c206661696c65648152508573ffffffffffffffffffffffffffffffffffffffff166119169092919063ffffffff16565b905060008151111561191157808060200190518101906118d191906127c4565b611910576040517f08c379a000000000000000000000000000000000000000000000000000000000815260040161190790612863565b60405180910390fd5b5b505050565b6060611925848460008561192e565b90509392505050565b606082471015611973576040517f08c379a000000000000000000000000000000000000000000000000000000000815260040161196a906128f5565b60405180910390fd5b61197c85611a42565b6119bb576040517f08c379a00000000000000000000000000000000000000000000000000000000081526004016119b290612961565b60405180910390fd5b6000808673ffffffffffffffffffffffffffffffffffffffff1685876040516119e491906129bd565b60006040518083038185875af1925050503d8060008114611a21576040519150601f19603f3d011682016040523d82523d6000602084013e611a26565b606091505b5091509150611a36828286611a65565b92505050949350505050565b6000808273ffffffffffffffffffffffffffffffffffffffff163b119050919050565b60608315611a7557829050611ac5565b600083511115611a885782518084602001fd5b816040517f08c379a0000000000000000000000000000000000000000000000000000000008152600401611abc9190611e94565b60405180910390fd5b9392505050565b600082825260208201905092915050565b7f457468207061796d656e74732068617665206265656e20626c6f636b6564212060008201527f436865636b2077686574686572206164647265737320696e207573652062656660208201527f6f72652073656e64696e6720616e797468696e67202845524332307320696e6360408201527f6c75646564212900000000000000000000000000000000000000000000000000606082015250565b6000611b85606783611acc565b9150611b9082611add565b608082019050919050565b60006020820190508181036000830152611bb481611b78565b9050919050565b600073ffffffffffffffffffffffffffffffffffffffff82169050919050565b6000611be682611bbb565b9050919050565b611bf681611bdb565b82525050565b6000819050919050565b611c0f81611bfc565b82525050565b6000604082019050611c2a6000830185611bed565b611c376020830184611c06565b9392505050565b600080fd5b6000611c4e82611bbb565b9050919050565b611c5e81611c43565b8114611c6957600080fd5b50565b600081359050611c7b81611c55565b92915050565b600060208284031215611c9757611c96611c3e565b5b6000611ca584828501611c6c565b91505092915050565b6000602082019050611cc36000830184611c06565b92915050565b6000611cd482611bdb565b9050919050565b611ce481611cc9565b8114611cef57600080fd5b50565b600081359050611d0181611cdb565b92915050565b611d1081611bdb565b8114611d1b57600080fd5b50565b600081359050611d2d81611d07565b92915050565b60008060408385031215611d4a57611d49611c3e565b5b6000611d5885828601611cf2565b9250506020611d6985828601611d1e565b9150509250929050565b611d7c81611bfc565b8114611d8757600080fd5b50565b600081359050611d9981611d73565b92915050565b60008060408385031215611db657611db5611c3e565b5b6000611dc485828601611d1e565b9250506020611dd585828601611d8a565b9150509250929050565b600060208284031215611df557611df4611c3e565b5b6000611e0384828501611cf2565b91505092915050565b600081519050919050565b60005b83811015611e35578082015181840152602081019050611e1a565b83811115611e44576000848401525b50505050565b6000601f19601f8301169050919050565b6000611e6682611e0c565b611e708185611acc565b9350611e80818560208601611e17565b611e8981611e4a565b840191505092915050565b60006020820190508181036000830152611eae8184611e5b565b905092915050565b600060208284031215611ecc57611ecb611c3e565b5b6000611eda84828501611d8a565b91505092915050565b6000602082019050611ef86000830184611bed565b92915050565b600060208284031215611f1457611f13611c3e565b5b6000611f2284828501611d1e565b91505092915050565b7f466c657869626c655061796d656e7453706c69747465723a206163636f756e7460008201527f20686173206e6f20736861726573000000000000000000000000000000000000602082015250565b6000611f87602e83611acc565b9150611f9282611f2b565b604082019050919050565b60006020820190508181036000830152611fb681611f7a565b9050919050565b7f4e487b7100000000000000000000000000000000000000000000000000000000600052601160045260246000fd5b6000611ff782611bfc565b915061200283611bfc565b9250827fffffffffffffffffffffffffffffffffffffffffffffffffffffffffffffffff0382111561203757612036611fbd565b5b828201905092915050565b6000819050919050565b600061206761206261205d84611bbb565b612042565b611bbb565b9050919050565b60006120798261204c565b9050919050565b600061208b8261206e565b9050919050565b61209b81612080565b82525050565b60006040820190506120b66000830185612092565b6120c36020830184611c06565b9392505050565b6000815190506120d981611d73565b92915050565b6000602082840312156120f5576120f4611c3e565b5b6000612103848285016120ca565b91505092915050565b7f4f776e61626c653a2063616c6c6572206973206e6f7420746865206f776e6572600082015250565b6000612142602083611acc565b915061214d8261210c565b602082019050919050565b6000602082019050818103600083015261217181612135565b9050919050565b7f4e487b7100000000000000000000000000000000000000000000000000000000600052603260045260246000fd5b60006121b282611bfc565b91507fffffffffffffffffffffffffffffffffffffffffffffffffffffffffffffffff8214156121e5576121e4611fbd565b5b600182019050919050565b7f4e487b7100000000000000000000000000000000000000000000000000000000600052602260045260246000fd5b6000600282049050600182168061223757607f821691505b6020821081141561224b5761224a6121f0565b5b50919050565b7f466c657869626c655061796d656e7453706c69747465723a206163636f756e7460008201527f20646f6573206e6f742065786973742100000000000000000000000000000000602082015250565b60006122ad603083611acc565b91506122b882612251565b604082019050919050565b600060208201905081810360008301526122dc816122a0565b9050919050565b60006122ee82611bfc565b91506122f983611bfc565b92508282101561230c5761230b611fbd565b5b828203905092915050565b7f4f776e61626c653a206e6577206f776e657220697320746865207a65726f206160008201527f6464726573730000000000000000000000000000000000000000000000000000602082015250565b6000612373602683611acc565b915061237e82612317565b604082019050919050565b600060208201905081810360008301526123a281612366565b9050919050565b60006123b482611bfc565b91506123bf83611bfc565b9250817fffffffffffffffffffffffffffffffffffffffffffffffffffffffffffffffff04831182151516156123f8576123f7611fbd565b5b828202905092915050565b7f4e487b7100000000000000000000000000000000000000000000000000000000600052601260045260246000fd5b600061243d82611bfc565b915061244883611bfc565b92508261245857612457612403565b5b828204905092915050565b7f416464726573733a20696e73756666696369656e742062616c616e6365000000600082015250565b6000612499601d83611acc565b91506124a482612463565b602082019050919050565b600060208201905081810360008301526124c88161248c565b9050919050565b600081905092915050565b50565b60006124ea6000836124cf565b91506124f5826124da565b600082019050919050565b600061250b826124dd565b9150819050919050565b7f416464726573733a20756e61626c6520746f2073656e642076616c75652c207260008201527f6563697069656e74206d61792068617665207265766572746564000000000000602082015250565b6000612571603a83611acc565b915061257c82612515565b604082019050919050565b600060208201905081810360008301526125a081612564565b9050919050565b7f466c657869626c655061796d656e7453706c69747465723a206163636f756e7460008201527f20697320746865207a65726f2061646472657373000000000000000000000000602082015250565b6000612603603483611acc565b915061260e826125a7565b604082019050919050565b60006020820190508181036000830152612632816125f6565b9050919050565b7f466c657869626c655061796d656e7453706c69747465723a207368617265732060008201527f6172652030000000000000000000000000000000000000000000000000000000602082015250565b6000612695602583611acc565b91506126a082612639565b604082019050919050565b600060208201905081810360008301526126c481612688565b9050919050565b7f466c657869626c655061796d656e7453706c69747465723a206163636f756e7460008201527f20616c7265616479206861732073686172657300000000000000000000000000602082015250565b6000612727603383611acc565b9150612732826126cb565b604082019050919050565b600060208201905081810360008301526127568161271a565b9050919050565b7f4e487b7100000000000000000000000000000000000000000000000000000000600052603160045260246000fd5b60008115159050919050565b6127a18161278c565b81146127ac57600080fd5b50565b6000815190506127be81612798565b92915050565b6000602082840312156127da576127d9611c3e565b5b60006127e8848285016127af565b91505092915050565b7f5361666545524332303a204552433230206f7065726174696f6e20646964206e60008201527f6f74207375636365656400000000000000000000000000000000000000000000602082015250565b600061284d602a83611acc565b9150612858826127f1565b604082019050919050565b6000602082019050818103600083015261287c81612840565b9050919050565b7f416464726573733a20696e73756666696369656e742062616c616e636520666f60008201527f722063616c6c0000000000000000000000000000000000000000000000000000602082015250565b60006128df602683611acc565b91506128ea82612883565b604082019050919050565b6000602082019050818103600083015261290e816128d2565b9050919050565b7f416464726573733a2063616c6c20746f206e6f6e2d636f6e7472616374000000600082015250565b600061294b601d83611acc565b915061295682612915565b602082019050919050565b6000602082019050818103600083015261297a8161293e565b9050919050565b600081519050919050565b600061299782612981565b6129a181856124cf565b93506129b1818560208601611e17565b80840191505092915050565b60006129c9828461298c565b91508190509291505056fea2646970667358221220609dc8b75883e4143ce3b20f26f61cbe97ae3b36de18855d519076e675e9d50a64736f6c634300080c0033",
  "immutableReferences": {},
  "source": "// SPDX-License-Identifier: MIT\n// Modification of OpenZeppelin Contracts v4.4.1 (finance/PaymentSplitter.sol)\n// Main modifications:\n// Ability to deletePayee, changeShares and blockEthPayments\n\npragma solidity ^0.8.0;\n\nimport \"@openzeppelin/contracts/token/ERC20/utils/SafeERC20.sol\";\nimport \"@openzeppelin/contracts/utils/Address.sol\";\nimport \"@openzeppelin/contracts/utils/Context.sol\";\nimport \"@openzeppelin/contracts/access/Ownable.sol\";\n\n/**\n * @title FlexiblePaymentSplitter\n * @dev This contract allows to split Ether payments among a group of accounts. The sender does not need to be aware\n * that the Ether will be split in this way, since it is handled transparently by the contract.\n *\n * The split can be in equal parts or in any other arbitrary proportion. The way this is specified is by assigning each\n * account to a number of shares. Of all the Ether that this contract receives, each account will then be able to claim\n * an amount proportional to the percentage of total shares they were assigned.\n *\n * `FlexiblePaymentSplitter` follows a _pull payment_ model. This means that payments are not automatically forwarded to the\n * accounts but kept in this contract, and the actual transfer is triggered as a separate step by calling the {release}\n * function.\n *\n * NOTE: This contract assumes that ERC20 tokens will behave similarly to native tokens (Ether). Rebasing tokens, and\n * tokens that apply fees during transfers, are likely to not be supported as expected. If in doubt, we encourage you\n * to run tests before sending real value to this contract.\n */\ncontract FlexiblePaymentSplitter is Context, Ownable {\n    event PayeeAdded(address account, uint256 shares);\n    event PayeeDeleted(address account);\n    event PaymentReleased(address to, uint256 amount);\n    event ERC20PaymentReleased(\n        IERC20 indexed token,\n        address to,\n        uint256 amount\n    );\n    event PaymentReceived(address from, uint256 amount);\n\n    uint256 private _totalShares;\n    uint256 private _totalReleased;\n    string _description;\n\n    mapping(address => uint256) private _shares;\n    mapping(address => uint256) private _released;\n    address[] private _payees;\n    uint256 public numCurrentPayees;\n    bool _ethPaymentsBlocked;\n    mapping(IERC20 => uint256) private _erc20TotalReleased;\n    mapping(IERC20 => mapping(address => uint256)) private _erc20Released;\n\n    /**\n     * @dev Creates an instance of `FlexiblePaymentSplitter` where each account in `payees` is assigned the number of shares at\n     * the matching position in the `shares` array.\n     *\n     * All addresses in `payees` must be non-zero. Both arrays must have the same non-zero length, and there must be no\n     * duplicates in `payees`.\n     */\n    constructor(\n        address[] memory payees,\n        uint256[] memory shares_,\n        string memory description_,\n        address owner\n    ) payable {\n        require(\n            payees.length == shares_.length,\n            \"FlexiblePaymentSplitter: payees and shares length mismatch\"\n        );\n        require(payees.length > 0, \"FlexiblePaymentSplitter: no payees\");\n\n        _description = description_;\n        _ethPaymentsBlocked = false;\n        for (uint256 i = 0; i < payees.length; i++) {\n            _addPayee(payees[i], shares_[i]);\n        }\n        _transferOwnership(owner);\n    }\n\n    /**\n     * @dev The Ether received will be logged with {PaymentReceived} events. Note that these events are not fully\n     * reliable: it's possible for a contract to receive Ether without triggering this function. This only affects the\n     * reliability of the events, and not the actual splitting of Ether.\n     *\n     * To learn more about this see the Solidity documentation for\n     * https://solidity.readthedocs.io/en/latest/contracts.html#fallback-function[fallback\n     * functions].\n     */\n    receive() external payable virtual {\n        require(\n            _ethPaymentsBlocked == false,\n            \"Eth payments have been blocked! Check whether address in use before sending anything (ERC20s included!)\"\n        );\n        emit PaymentReceived(_msgSender(), msg.value);\n    }\n\n    /**\n     * @dev Getter for the total shares held by payees.\n     */\n    function totalShares() public view returns (uint256) {\n        return _totalShares;\n    }\n\n    /**\n     * @dev Getter for the total amount of Ether already released.\n     */\n    function totalReleased() public view returns (uint256) {\n        return _totalReleased;\n    }\n\n    /**\n     * @dev Getter for description\n     */\n    function description() public view returns (string memory) {\n        return _description;\n    }\n\n    /**\n     * @dev Getter for the total amount of `token` already released. `token` should be the address of an IERC20\n     * contract.\n     */\n    function totalReleased(IERC20 token) public view returns (uint256) {\n        return _erc20TotalReleased[token];\n    }\n\n    /**\n     * @dev Getter for the amount of shares held by an account.\n     */\n    function shares(address account) public view returns (uint256) {\n        return _shares[account];\n    }\n\n    /**\n     * @dev Getter for the amount of Ether already released to a payee.\n     */\n    function released(address account) public view returns (uint256) {\n        return _released[account];\n    }\n\n    /**\n     * @dev Getter for the amount of `token` tokens already released to a payee. `token` should be the address of an\n     * IERC20 contract.\n     */\n    function released(IERC20 token, address account)\n        public\n        view\n        returns (uint256)\n    {\n        return _erc20Released[token][account];\n    }\n\n    /**\n     * @dev Getter for the address of the payee number `index`.\n     */\n    function payee(uint256 index) public view returns (address) {\n        return _payees[index];\n    }\n\n    /**\n     * @dev Triggers a transfer to `account` of the amount of Ether they are owed, according to their percentage of the\n     * total shares and their previous withdrawals.\n     */\n    function release(address payable account) public virtual {\n        require(\n            _shares[account] > 0,\n            \"FlexiblePaymentSplitter: account has no shares\"\n        );\n\n        uint256 totalReceived = address(this).balance + totalReleased();\n        uint256 payment = _pendingPayment(\n            account,\n            totalReceived,\n            released(account)\n        );\n\n        if (payment > 0) {\n            _released[account] += payment;\n            _totalReleased += payment;\n            Address.sendValue(account, payment);\n            emit PaymentReleased(account, payment);\n        }\n    }\n\n    /**\n     * @dev Triggers a transfer to `account` of the amount of `token` tokens they are owed, according to their\n     * percentage of the total shares and their previous withdrawals. `token` must be the address of an IERC20\n     * contract.\n     */\n    function release(IERC20 token, address account) public virtual {\n        require(\n            _shares[account] > 0,\n            \"FlexiblePaymentSplitter: account has no shares\"\n        );\n\n        uint256 totalReceived = token.balanceOf(address(this)) +\n            totalReleased(token);\n        uint256 payment = _pendingPayment(\n            account,\n            totalReceived,\n            released(token, account)\n        );\n\n        if (payment > 0) {\n            _erc20Released[token][account] += payment;\n            _erc20TotalReleased[token] += payment;\n\n            SafeERC20.safeTransfer(token, account, payment);\n            emit ERC20PaymentReleased(token, account, payment);\n        }\n    }\n\n    /**\n     * @dev internal logic for computing the pending payment of an `account` given the token historical balances and\n     * already released amounts.\n     */\n    function _pendingPayment(\n        address account,\n        uint256 totalReceived,\n        uint256 alreadyReleased\n    ) private view returns (uint256) {\n        return\n            (totalReceived * _shares[account]) / _totalShares - alreadyReleased;\n    }\n\n    /**\n     * @dev Add a new payee to the contract.\n     * @param account The address of the payee to add.\n     * @param shares_ The number of shares owned by the payee.\n     */\n    function _addPayee(address account, uint256 shares_) private {\n        require(\n            account != address(0),\n            \"FlexiblePaymentSplitter: account is the zero address\"\n        );\n        require(shares_ > 0, \"FlexiblePaymentSplitter: shares are 0\");\n        require(\n            _shares[account] == 0,\n            \"FlexiblePaymentSplitter: account already has shares\"\n        );\n\n        numCurrentPayees += 1;\n        _payees.push(account);\n        _shares[account] = shares_;\n        _totalShares = _totalShares + shares_;\n        emit PayeeAdded(account, shares_);\n    }\n\n    /**\n     * When you delete a Payee, they won't be able to release any funds anymore, regardless of when the fund was received.\n     * If you want to make sure they get paid, release(account) or release(token, account) before you deletePayee(account)\n     */\n    function deletePayee(address account) public onlyOwner {\n        require(\n            _shares[account] != 0,\n            \"FlexiblePaymentSplitter: account does not exist!\"\n        );\n\n        uint256 target;\n        for (uint256 i = 0; i < _payees.length; i++) {\n            if (_payees[i] == account) {\n                target = i;\n                break;\n            }\n        }\n        numCurrentPayees -= 1;\n        _popPayeeFromArray(target);\n        uint256 oldShares = _shares[account];\n        _shares[account] = 0;\n        _totalShares = _totalShares - oldShares;\n        emit PayeeDeleted(account);\n    }\n\n    /**\n     * swap+pop since order is not important for us\n     */\n    function _popPayeeFromArray(uint256 idx) private {\n        require(idx < _payees.length);\n        _payees[idx] = _payees[_payees.length - 1];\n        _payees.pop();\n    }\n\n    /**\n     * All existing funds are shared according to new_shares too!\n     */\n    function changeShares(address account, uint256 new_shares)\n        public\n        onlyOwner\n    {\n        deletePayee(account);\n        _addPayee(account, new_shares);\n    }\n\n    /**\n     * The following 2 are convenience functions so that someone can release the funds for everyone!\n     */\n    function releaseAll() public {\n        for (uint256 i = 0; i < _payees.length; i++) {\n            release(payable(_payees[i]));\n        }\n    }\n\n    function releaseAll(IERC20 token) public {\n        for (uint256 i = 0; i < _payees.length; i++) {\n            release(token, _payees[i]);\n        }\n    }\n\n    /**\n     * Obvious but bears repeating: You can't block ERC20 payments to this contract!\n     */\n    function blockEthPayments() public onlyOwner {\n        _ethPaymentsBlocked = true;\n    }\n\n    function unblockEthPayments() public onlyOwner {\n        _ethPaymentsBlocked = false;\n    }\n}\n",
  "sourcePath": "/home/psyf/Desktop/solidity_practice/easy-income-split/contracts/FlexiblePaymentSplitter.sol",
  "compiler": {
    "name": "solc",
    "version": "0.8.12+commit.f00d7308.Emscripten.clang"
  },
  "schemaVersion": "3.4.6",
  "updatedAt": "2022-03-20T08:55:05.750Z",
  "devdoc": {
    "details": "This contract allows to split Ether payments among a group of accounts. The sender does not need to be aware that the Ether will be split in this way, since it is handled transparently by the contract. The split can be in equal parts or in any other arbitrary proportion. The way this is specified is by assigning each account to a number of shares. Of all the Ether that this contract receives, each account will then be able to claim an amount proportional to the percentage of total shares they were assigned. `FlexiblePaymentSplitter` follows a _pull payment_ model. This means that payments are not automatically forwarded to the accounts but kept in this contract, and the actual transfer is triggered as a separate step by calling the {release} function. NOTE: This contract assumes that ERC20 tokens will behave similarly to native tokens (Ether). Rebasing tokens, and tokens that apply fees during transfers, are likely to not be supported as expected. If in doubt, we encourage you to run tests before sending real value to this contract.",
    "kind": "dev",
    "methods": {
      "constructor": {
        "details": "Creates an instance of `FlexiblePaymentSplitter` where each account in `payees` is assigned the number of shares at the matching position in the `shares` array. All addresses in `payees` must be non-zero. Both arrays must have the same non-zero length, and there must be no duplicates in `payees`."
      },
      "description()": {
        "details": "Getter for description"
      },
      "owner()": {
        "details": "Returns the address of the current owner."
      },
      "payee(uint256)": {
        "details": "Getter for the address of the payee number `index`."
      },
      "release(address)": {
        "details": "Triggers a transfer to `account` of the amount of Ether they are owed, according to their percentage of the total shares and their previous withdrawals."
      },
      "release(address,address)": {
        "details": "Triggers a transfer to `account` of the amount of `token` tokens they are owed, according to their percentage of the total shares and their previous withdrawals. `token` must be the address of an IERC20 contract."
      },
      "released(address)": {
        "details": "Getter for the amount of Ether already released to a payee."
      },
      "released(address,address)": {
        "details": "Getter for the amount of `token` tokens already released to a payee. `token` should be the address of an IERC20 contract."
      },
      "renounceOwnership()": {
        "details": "Leaves the contract without owner. It will not be possible to call `onlyOwner` functions anymore. Can only be called by the current owner. NOTE: Renouncing ownership will leave the contract without an owner, thereby removing any functionality that is only available to the owner."
      },
      "shares(address)": {
        "details": "Getter for the amount of shares held by an account."
      },
      "totalReleased()": {
        "details": "Getter for the total amount of Ether already released."
      },
      "totalReleased(address)": {
        "details": "Getter for the total amount of `token` already released. `token` should be the address of an IERC20 contract."
      },
      "totalShares()": {
        "details": "Getter for the total shares held by payees."
      },
      "transferOwnership(address)": {
        "details": "Transfers ownership of the contract to a new account (`newOwner`). Can only be called by the current owner."
      }
    },
    "title": "FlexiblePaymentSplitter",
    "version": 1
  },
  "userdoc": {
    "kind": "user",
    "methods": {
      "blockEthPayments()": {
        "notice": "Obvious but bears repeating: You can't block ERC20 payments to this contract!"
      },
      "changeShares(address,uint256)": {
        "notice": "All existing funds are shared according to new_shares too!"
      },
      "deletePayee(address)": {
        "notice": "When you delete a Payee, they won't be able to release any funds anymore, regardless of when the fund was received. If you want to make sure they get paid, release(account) or release(token, account) before you deletePayee(account)"
      },
      "releaseAll()": {
        "notice": "The following 2 are convenience functions so that someone can release the funds for everyone!"
      }
    },
    "version": 1
  }
}